:020000040800F2
:10000000F008002001010008E51700085917000852
:10001000E1170008E9060008B12000080000000010
:10002000000000000000000000000000011D0008AA
:10003000ED060008000000004D1C0008A11F00088C
:100040001B0100081B0100081B0100081B01000820
:100050001B0100081B0100081B0100081B01000810
:100060001B0100081B0100081B0100081B01000800
:100070001B0100081B0100081B0100081B010008F0
:100080001B0100081B0100081B0100081B010008E0
:100090001B0100081B0100081B0100081B010008D0
:1000A0001B0100081B0100081B0100081B010008C0
:1000B0001B0100081B0100081B0100081B010008B0
:1000C0001B0100081B0100081B0100081B010008A0
:1000D0001B0100081B0100081B0100081B01000890
:1000E0001B0100081B0100081B010008DFF80CD0F1
:1000F00000F05AFA0048004795250008F008002053
:100100000648804706480047FEE7FEE7FEE7FEE7B1
:10011000FEE7FEE7FEE7FEE7FEE7FEE7F11F000869
:10012000ED0000082DE9F0410024061B254671F181
:10013000000605DA01240027D0EB070067EB010178
:10014000161E73F1000605DA0027D2EB070201251F
:1001500067EB030300F03FF886460E4617469C46C1
:10016000AC4204D00025D0EB050E65EB010624B1AE
:100170000020D2EB000760EB030C704631463A4694
:100180006346BDE8F081D2B201E000F8012B491EC0
:10019000FBD270470022F6E710B513460A46044624
:1001A0001946FFF7F0FF204610BD30B50B4601465B
:1001B00000202022012409E021FA02F59D4205D306
:1001C00003FA02F5491B04FA02F52844151EA2F1B0
:1001D0000102F1DC30BD2DE9F05F054600209246BA
:1001E0009B4688460646814640241BE028464146F9
:1001F0004746224600F0F9F953465A46C01A914143
:1002000010D311461846224600F0E0F92D1A67EB8C
:1002100001084F4622460120002100F0D7F917EBD4
:1002200000094E41201EA4F10104DFDC484631469E
:100230002A464346BDE8F09F2DE9FE4F804681EAFD
:100240000300C00F0C46009021F0004123F0004550
:10025000B8EB0200A94105D24046214690461C4613
:100260000B46024623F00040104347D0270DC7F34A
:100270000A00C3F30A510290401A019040286BDA39
:10028000C3F3130040F4801B0098924620B1002372
:10029000D2EB030A63EB0B0B01985946C0F1400205
:1002A000504600F093F906460D4650465946019ACD
:1002B00000F0ABF910EB08006141002487EA11520D
:1002C00084EAE7731A4340D0009A62B3019A012A84
:1002D0004FEA075215DC001B61EB02014FF00042B0
:1002E00002EA0752CDE90042001C41F58011324676
:1002F0002B4600F0ABF903B0BDE8F08F4046214635
:10030000F9E7001B61EB0201001C41F580130018A6
:100310005B412018A2F5001747EB030140EAD570B6
:10032000B6196D4111E06D084FEA360645EAC07511
:100330004FEA0752001B61EB0201001C41F58011DE
:1003400049084FEA30000019514132462B4603B0AC
:10035000BDE8F04F00F06BB9009801224000002387
:10036000D0EB020263EBE073009821464FEAE074A1
:10037000B8EB000061EB0401E9E783F000435BE7C1
:1003800081F0004158E72DE9FE4F81EA030404F0B3
:10039000004421F0004100944FF0000B23F0004393
:1003A00050EA01045ED052EA03045BD0C3F30A545E
:1003B000C1F30A552C44A4F2F3340194A0FB025477
:1003C000C1F3130141F48011C3F3130343F4801309
:1003D00001FB024400FB034E840A970A44EA81545D
:1003E00047EA8357A4FB076802958D0A05FB07853A
:1003F0004FEA932C04FB0C542705029D4FEA065844
:1004000047EA1637B5EB08056EEB070C870E920E20
:1004100047EA811742EA8312A7FB0201B6EB0B0100
:1004200064EB00042B0D43EA0C335E1844EB1C50C4
:10043000DA465146E7FB0201C5F313044FEA0B33DA
:1004400043EA14534FEA0432019C43EA0603A4F141
:100450000C040294009CCDE900B400F0F7F803B05E
:10046000BDE8F08F00200146F9E72DE9F04D81EA63
:10047000030404F0004B21F0004514464FF0000A3D
:1004800023F0004150EA050220D054EA01021DD0B9
:10049000C5F30A570246C5F31303C1F31300C1F3B2
:1004A0000A5640F4801543F48013A7EB0608101B8E
:1004B000D64608F2FD3873EB050002D308F10108B7
:1004C00001E092185B41B8F1000F03DA0020014609
:1004D000BDE8F08D00204FF48011064684460EE002
:1004E000171B73EB050705D3121B63EB05030643CC
:1004F0004CEA010C49084FEA300092185B4150EA7F
:100500000107EDD152EA030012D082EA040083EA27
:100510000501084305D0101BAB4106D20122002380
:1005200006E000224FF0004302E06FF0010253109A
:100530001AEB06004CEB085110EB0A0041EB0B01E3
:10054000BDE8F04D00F073B8C1F30A52C1F31301D6
:1005500040F2FF3341F480119A4202DA0020014652
:10056000704740F233439A42A2F2334202DC5242D5
:1005700000F03BB800F02AB830B5041E71F1000459
:1005800004DB4FF00044404264EB0101141E73F1A0
:10059000000405DB1C464FF00043524263EB0403AA
:1005A000994208BF904230BD064C074D06E0E06816
:1005B00040F0010394E8070098471034AC42F6D3AA
:1005C000FFF798FD4834000868340008202A04DB4F
:1005D000203A00FA02F1002070479140C2F1200356
:1005E00020FA03F3194390407047202A04DB203A95
:1005F00021FA02F00021704721FA02F3D040C2F143
:1006000020029140084319467047202A06DBCB1789
:10061000203A41FA02F043EAE07306E041FA02F3BD
:10062000D040C2F12002914008431946704710B5EE
:10063000141E73F1000408DA401C41F10001921805
:100640005B411A4301D120F0010010BD2DE9F04DAE
:1006500092469B4611B1B1FA81F202E0B0FA80F203
:1006600020329046FFF7B2FF04460F4640EA0A00E8
:1006700041EA0B0153465A46084313D0114653EA48
:10068000010019D0C8F140025046FFF7AEFF054601
:100690000E46504659464246FFF798FF084305D09C
:1006A000012004E020463946BDE8F08D00200543D6
:1006B00046EAE0762C4337430A986305E40AA0EB48
:1006C00008000022FD0A44EA47540A3002D50020FF
:1006D0000146E9E7010510196941DDE908450019FE
:1006E0006941BDE8F04DA2E7FFE7FEE77047000073
:1006F00081B0EFF3108072B60090FFE7FEE70000D4
:1007000080B584B0039000F0DDF902900398019069
:100710000198013048B1FFE740F20400C2F2000046
:100720000178019808440190FFE7FFE700F0CAF95B
:100730000299401A0199884201D2FFE7F6E704B016
:1007400080BD000090B00F900E9100200D90099098
:10075000FFE70E9800680D99C840002800F07F81DF
:10076000FFE70D99012088400C900E9800680C99C5
:1007700008400B900B980C99884240F06C81FFE781
:100780000E9840680590002851D0FFE70598012891
:100790003AD0FFE7059802283FD0FFE705980328E5
:1007A0005FD0FFE70598112832D0FFE7059812289F
:1007B00038D0FFE705980021C1F21101884236D0F8
:1007C000FFE705980021C1F2120188422FD0FFE710
:1007D00005980021C1F22101884228D0FFE7059841
:1007E0000021C1F22201884221D0FFE705980021B3
:1007F000C1F2310188421AD0FFE705980021C1F209
:100800003201884213D02FE00E98C06809902CE086
:100810000E98C0680430099027E00E98C068083030
:10082000099022E00E98C0680C3009901DE00E98E7
:10083000806818B9FFE70420099011E00E988068DD
:10084000012806D1FFE7082009900C980F9908614C
:1008500005E0082009900C980F994861FFE7FFE731
:1008600003E00020099000E0FFE70B98FF2803D881
:10087000FFE70F98049003E00F9804300490FFE71F
:10088000049808900B98FF2804D8FFE70D98800083
:10089000039006E00D996FF01F0000EB81000390BC
:1008A000FFE70398079008980068079A0F21914086
:1008B0008843099991400843089908600E98C079C7
:1008C000C006002840F1C680FFE7FFE741F21800AC
:1008D000C4F20200016841F001010160006800F00B
:1008E000010006900698FFE70D9820F0030008210C
:1008F000C4F2010140580A900D9800F003008100F5
:100900000F2000FA01F10A9888430A900F9840F6E8
:100910000001C4F20101884203D1FFE700200290E8
:1009200026E00F9840F60041C4F20101884203D14D
:10093000FFE70120019018E00F9841F20001C4F296
:100940000101884203D1FFE7022000900AE00F99DD
:1009500041F20042C4F201020420914208BF032088
:100960000090FFE700980190FFE701980290FFE7F1
:1009700002980D9901F00301890000FA01F10A982B
:1009800008430A900A980D9921F003010822C4F245
:10099000010288500E988079C006002809D5FFE72B
:1009A0000B9A40F20841C4F2010108681043086044
:1009B00008E00B9A40F20841C4F201010868904334
:1009C0000860FFE70E9880798006002809D5FFE7C8
:1009D0000B9A40F20C41C4F2010108681043086010
:1009E00008E00B9A40F20C41C4F201010868904300
:1009F0000860FFE70E9880798007002809D5FFE797
:100A00000B9A40F20441C4F20101086810430860E7
:100A100008E00B9A40F20441C4F2010108689043D7
:100A20000860FFE70E988079C00748B1FFE70B9A8E
:100A300040F20041C4F2010108681043086008E078
:100A40000B9A40F20041C4F201010868904308602B
:100A5000FFE7FFE7FFE70D9801300D9079E610B052
:100A60007047000082B00190ADF8021001988068D4
:100A7000BDF80210084204D0FFE701208DF8010004
:100A800003E000208DF80100FFE79DF8010002B0AF
:100A90007047000082B00190ADF802108DF801207F
:100AA0009DF8010028B1FFE7BDF802000199086137
:100AB00005E0BDF80200000401990861FFE702B0FB
:100AC0007047000040F2EC40C2F20000006870473E
:100AD00040F20400C2F20000027840F2EC41C2F29F
:100AE00000010868104408607047000080B542F2B9
:100AF0000001C4F20201086840F010000860032001
:100B000000F08CF80F2000F005F800F03BF8002012
:100B100080BD000080B582B0009040F20000C2F2BB
:100B20000000006840F20401C2F200010A784FF4AC
:100B30007A71B1FBF2F1B0FBF1F000F069FD20B188
:100B4000FFE701208DF8070018E000980F280DD866
:100B5000FFE700994FF0FF30002200F045F80098C1
:100B600040F20801C2F20001086003E001208DF8A4
:100B7000070003E000208DF80700FFE79DF807005D
:100B800002B080BD83B0FFE741F21800C4F202005A
:100B9000016841F001010160006800F0010002906D
:100BA0000298FFE7FFE741F21C00C4F2020001686F
:100BB00041F080510160006800F080500190019880
:100BC000FFE7FFE70421C4F20101086800900098E4
:100BD00020F0E0600090009840F080600090009865
:100BE0000860FFE703B0704780B586B08DF8170046
:100BF000049103920020029001F05CFA02909DF9AA
:100C00001700019002980499039A00F0EDFD014647
:100C1000019801F057FA06B080BD000080B582B09F
:100C20000190019801F070FA02B080BD80B584B0E7
:100C300002900191029820B9FFE701208DF80F0082
:100C40001BE1019842F20001C4F20201096801F0BF
:100C50000701884216D9FFE742F20000C4F2020001
:100C6000016821F00701019A11430160006800F05A
:100C700007000199884204D0FFE701208DF80F009A
:100C8000FBE0FFE702980078800700282AD5FFE7FD
:100C9000029800784007002809D5FFE741F20401D7
:100CA000C4F20201086840F4E0600860FFE70298BF
:100CB00000780007002809D5FFE741F20401C4F2DB
:100CC0000201086840F460500860FFE741F2040147
:100CD000C4F20201086820F0F000029A9268104302
:100CE0000860FFE702980078C007002860D0FFE79F
:100CF0000298406801280ED1FFE741F20000C4F2DB
:100D0000020000688003002804D4FFE701208DF86A
:100D10000F00B2E021E00298406802280ED1FFE700
:100D200041F20000C4F2020000688001002804D4EF
:100D3000FFE701208DF80F009FE00DE041F2000079
:100D4000C4F2020000688007002804D4FFE70120F5
:100D50008DF80F0091E0FFE7FFE741F20401C4F2D4
:100D60000201086820F00300029A526810430860EC
:100D7000FFF7A8FE0090FFE741F20400C4F2020072
:100D8000006800F00C0002994968B0EB810F0ED0AA
:100D9000FFE7FFF797FE0099401A41F28931884238
:100DA00004D3FFE703208DF80F0066E0E4E7FFE7D8
:100DB000019842F20001C4F20201096801F0070142
:100DC000884216D2FFE742F20000C4F20200016836
:100DD00021F00701019A11430160006800F007004B
:100DE0000199884204D0FFE701208DF80F0044E00C
:100DF000FFE702980078400700280CD5FFE741F292
:100E00000401C4F20201086820F4E060029AD2688A
:100E100010430860FFE702980078000700280DD50E
:100E2000FFE741F20401C4F20201086820F46050B7
:100E3000029A126940EAC2000860FFE700F04CF82D
:100E400041F20401C4F202010968C9B20A0943F27D
:100E5000B011C0F60001895CC84040F20001C2F246
:100E60000001086040F20800C2F200000068FFF7CD
:100E700051FE00208DF80F00FFE79DF80F0004B031
:100E800080BD000040F20000C2F200000068704720
:100E900080B5FFF7F7FF41F20401C4F202010968CF
:100EA000C1F3022243F2C011C0F60001895CC840C0
:100EB00080BD000080B5FFF7E5FF41F20401C4F2F8
:100EC00002010968C1F3C22243F2C011C0F6000159
:100ED000895CC84080BD000086B000200590049069
:100EE00003900290019041F20400C4F202000068F5
:100EF0000590059800F00C000146009100283FD0B5
:100F0000FFE70098042804D0FFE70098082806D0DF
:100F100037E041F20020C0F27A00019037E00598F6
:100F2000C0F3834143F2A330C0F60000405C02905E
:100F30009DF81600C007C0B1FFE741F20400C4F2FB
:100F400002000068C0F3404143F2B330C0F6000035
:100F5000405C0490029841F20021C0F27A014843BB
:100F60000499B0FBF1F0039007E0029840F60011FD
:100F7000C0F23D0148430390FFE70398019006E06B
:100F8000FFE741F20020C0F27A000190FFE70198EC
:100F900006B0704780B586B00490049820B9FFE78A
:100FA00001208DF817002EE304980078C007002870
:100FB00000F0AE80FFE741F20400C4F202000068D6
:100FC00000F00C00042813D0FFE741F20400C4F243
:100FD0000200006800F00C0008281BD1FFE741F276
:100FE0000400C4F202000068C003002812D5FFE725
:100FF00041F20000C4F2020000688003002808D516
:10100000FFE70498406820B9FFE701208DF817003A
:10101000F9E27CE0FFE704984068B0F5803F09D131
:10102000FFE741F20001C4F20201086840F4803099
:10103000086032E00498406868B9FFE741F20001B7
:10104000C4F20201086820F480300860086820F4C7
:101050008020086020E004984068B0F5A02F0DD1F2
:10106000FFE741F20001C4F20201086840F4802069
:101070000860086840F4803008600CE041F200012C
:10108000C4F20201086820F480300860086820F487
:1010900080200860FFE7FFE7FFE7FFE7049840686C
:1010A000D0B1FFE7FFF70EFD0390FFE741F200002C
:1010B000C4F202000068800300280CD4FFE7FFF7A9
:1010C00001FD0399401A652804D3FFE703208DF83A
:1010D000170098E2EAE719E0FFF7F4FC0390FFE756
:1010E00041F20000C4F202000068800300280CD521
:1010F000FFE7FFF7E7FC0399401A652804D3FFE7F1
:1011000003208DF817007EE2EAE7FFE7FFE7FFE73D
:10111000049800788007002840F18D80FFE741F2B5
:101120000400C4F20200006810F00C0F13D0FFE7B7
:1011300041F20400C4F20200006800F00C0008282C
:1011400029D1FFE741F20400C4F202000068C003A5
:10115000002820D4FFE741F20000C4F2020000683A
:101160008007002809D5FFE704980069012804D00A
:10117000FFE701208DF8170045E241F20001C4F2BB
:101180000201086820F0F800049A526940EAC2009F
:101190000860FFE74EE00498006958B3FFE70021BC
:1011A000C4F2422101200860FFF78CFC0390FFE7A6
:1011B00041F20000C4F202000068800700280CD44D
:1011C000FFE7FFF77FFC0399401A032804D3FFE7EA
:1011D00003208DF8170016E2EAE741F20001C4F29D
:1011E0000201086820F0F800049A526940EAC2003F
:1011F00008601EE00021C4F2422100200860FFF7D1
:1012000061FC0390FFE741F20000C4F202000068B5
:10121000800700280CD5FFE7FFF754FC0399401A1C
:10122000032804D3FFE703208DF81700EBE1EAE77A
:10123000FFE7FFE7FFE7049800780007002848D59C
:10124000FFE70498806918B3FFE740F28041C4F2D9
:10125000422101200860FFF735FC0390FFE741F2CF
:101260002400C4F202000068800700280CD4FFE7C5
:10127000FFF728FC0399401A032804D3FFE7032053
:101280008DF81700BFE1EAE7012000F0E1FC1FE064
:1012900040F28041C4F2422100200860FFF712FCB6
:1012A0000390FFE741F22400C4F2020000688007C7
:1012B00000280CD5FFE7FFF705FC0399401A032827
:1012C00004D3FFE703208DF817009CE1EAE7FFE76E
:1012D000FFE7049800784007002840F1D880FFE736
:1012E00000208DF8070041F21C00C4F202000068E3
:1012F000C000002813D4FFE7FFE741F21C00C4F24E
:101300000200016841F080510160006800F08050E7
:1013100000900098FFE701208DF80700FFE747F2F3
:101320000000C4F200000068C005002822D4FFE7D6
:1013300047F20001C4F20001086840F480700860C0
:10134000FFF7C0FB0390FFE747F20000C4F2000084
:101350000068C00500280CD4FFE7FFF7B3FB039932
:10136000401A652804D3FFE703208DF817004AE1EF
:10137000EAE7FFE7FFE70498C068012809D1FFE723
:1013800041F22001C4F20201086840F00100086047
:1013900031E00498C06868B9FFE741F22001C4F267
:1013A0000201086820F001000860086820F00400CD
:1013B00008601FE00498C06805280DD1FFE741F2DE
:1013C0002001C4F20201086840F0040008600868C7
:1013D00040F0010008600CE041F22001C4F202017B
:1013E000086820F001000860086820F00400086028
:1013F000FFE7FFE7FFE7FFE70498C068E0B1FFE71A
:10140000FFF760FB0390FFE741F22000C4F2020007
:101410000068800700280ED4FFE7FFF753FB03990D
:10142000401A41F28931884204D3FFE703208DF846
:101430001700E8E0E8E71BE0FFF744FB0390FFE755
:1014400041F22000C4F202000068800700280ED597
:10145000FFE7FFF737FB0399401A41F289318842D1
:1014600004D3FFE703208DF81700CCE0E8E7FFE79F
:101470009DF80700012809D1FFE741F21C01C4F2E1
:101480000201086820F080500860FFE7FFE7049839
:10149000C069002800F0B380FFE741F20400C4F205
:1014A0000200006800F00C00082800F08280FFE7CE
:1014B0000498C06902285CD1FFE76021C4F2422190
:1014C00000200860FFF7FEFA0390FFE741F20000FA
:1014D000C4F202000068800100280CD5FFE7FFF786
:1014E000F1FA0399401A032804D3FFE703208DF88B
:1014F000170088E0EAE70498006AB0F5803F0CD155
:10150000FFE741F20401C4F20201086820F4003050
:10151000049A926810430860FFE741F20401C4F2A4
:101520000201086820F47410049B1A6A5B6A1A436B
:10153000104308606021C4F2422101200860FFF7D7
:10154000C1FA0390FFE741F20000C4F20200006814
:10155000800100280CD4FFE7FFF7B4FA0399401A82
:10156000032804D3FFE703208DF817004BE0EAE7D8
:101570001EE06021C4F2422100200860FFF7A2FAB9
:101580000390FFE741F20000C4F20200006880010E
:1015900000280CD5FFE7FFF795FA0399401A0328B6
:1015A00004D3FFE703208DF817002CE0EAE7FFE7FC
:1015B00024E00498C069012804D1FFE701208DF8D8
:1015C000170020E041F20400C4F20200006802901B
:1015D000029800F480300499096A884208D1FFE734
:1015E000029800F470100499496A884204D0FFE719
:1015F00001208DF8170006E0FFE7FFE7FFE7002076
:101600008DF81700FFE79DF8170006B080BD0000B9
:1016100080B582B00190019800F098FC02B080BDC6
:1016200080B582B00090009820B9FFE701208DF8C6
:10163000070040E00098806908B1FFE700E0FFE79D
:10164000009890F8410040B9FFE70099002081F828
:101650004000009800F034F8FFE70099242081F85A
:10166000410000980168C86820F40050C8600098E4
:1016700000F0C0FC00980168086920F490400861FF
:1016800000980168486920F02A00486100980168C4
:10169000C86840F40050C860009900204864009A6F
:1016A000202182F84110009A82F842100099486384
:1016B0008DF80700FFE79DF8070002B080BD00002D
:1016C00080B58AB009900020089007900690059098
:1016D0000998006843F60001C4F20101884239D13B
:1016E000FFE7FFE741F21800C4F20200016841F48D
:1016F00080410160006800F4804004900498FFE796
:10170000FFE741F21800C4F20200016841F0040151
:101710000160006800F0040003900398FFE74FF4B5
:1017200000700590022006900320089040F600000B
:10173000C4F20100019005A90291FFF703F8019896
:1017400002994FF480620592002206920792FEF7FA
:10175000F9FFFFE70AB080BDFFE7FEE782B0FFE7D1
:1017600041F21800C4F20200016841F0200101605A
:10177000006800F0200001900198FFE7FFE741F2C8
:101780001800C4F20200016841F004010160006821
:1017900000F0040000900098FFE702B070470000DE
:1017A00080B582B040F28840C2F20000019043F65A
:1017B0000001C4F2010101604FF4E13141600021F8
:1017C0008160C16001610C2242618161C161FFF7EA
:1017D00027FF18B1FFE7FEF78BFFFFE702B080BDE0
:1017E000FFE7FEE7FFE7FEE788B007900691059266
:1017F000079800F0070004900498C0F1070005283E
:1018000003D3FFE70420019004E00498C0F107002F
:101810000190FFE70198039004980430062803D84C
:10182000FFE70020009003E0049803380090FFE7F2
:101830000098029006980399012202FA01F10139F9
:101840000840029B984005999A40013A114008438C
:1018500008B0704781B00020ADF80200FFE7BDF886
:1018600002100020B0EB912F0FD1FFE7BDF802204E
:1018700040F21001C2F2000100208854FFE7BDF8D9
:1018800002000130ADF80200E9E701B07047000046
:1018900080B582B08DF807008DF806108DF8052010
:1018A0009DF80500202805DBFFE79DF805007F284F
:1018B00004DBFFE720208DF80500FFE79DF8050019
:1018C00020388DF8050000208DF80400FFE79DF812
:1018D0000400042839DCFFE700208DF80300FFE74F
:1018E0009DF80300062829DCFFE79DF8050000EBC2
:1018F000800143F2C810C0F6000008449DF80410AF
:10190000405C9DF80310C840C00780B1FFE79DF818
:1019100007009DF8041008449DF806109DF8032068
:101920001144C0B2C9B2012200F0F4F8FFE7FFE7AA
:101930009DF8030001308DF80300D1E7FFE79DF823
:10194000040001308DF80400C1E702B080BD000042
:1019500080B584B08DF80F008DF80E108DF80D2035
:101960009DF80D00032801DBFFE74EE09DF80D1008
:1019700043F2B530C0F6000000EB411001900020AA
:101980008DF80C00FFE79DF80C000F283DDCFFE709
:1019900001999DF80C2001EB420011F812104078DB
:1019A00040EA0120ADF8080000208DF80B00FFE7A9
:1019B0009DF80B000F2821DCFFE7BDF808009DF81B
:1019C0000B204FF40041D140084210D0FFE79DF8B2
:1019D0000F009DF80B1008449DF80E109DF80C2088
:1019E0001144C0B2C9B2012200F094F8FFE7FFE74A
:1019F0009DF80B0001308DF80B00D9E7FFE79DF84B
:101A00000C0001308DF80C00BDE704B080BD000073
:101A100080B584B003906420FEF772FEAE2000F023
:101A2000FBF8D52000F0F8F8802000F0F5F8A820A9
:101A300000F0F2F83F2000F0EFF8D32000F0ECF8CF
:101A40000020019000F0E8F84020029000F0E4F857
:101A50008D2000F0E1F8142000F0DEF8202000F0E6
:101A6000DBF8019800F0D8F8A12000F0D5F8C820E4
:101A700000F0D2F8812000F0CFF8CF2000F0CCF8B1
:101A8000D92000F0C9F8F12000F0C6F8DB2000F002
:101A9000C3F8029800F0C0F8A42000F0BDF8A6201A
:101AA00000F0BAF8AF2000F0B7F8FFF7D3FE00F06F
:101AB00075F804B080BD000080B582B08DF80700D5
:101AC0008DF806100092FFE700980078F8B1FFE764
:101AD0009DF807009DF80610009A1278FFF7D8FECF
:101AE0009DF8070006308DF807009DF807007B2859
:101AF00009DBFFE700208DF807009DF8060008309D
:101B00008DF80600FFE7009801300090DCE702B096
:101B100080BD000081B08DF803008DF802108DF8B3
:101B200001209DF803007F2805DCFFE79DF80200F7
:101B3000402801DBFFE72FE09DF80100B0B1FFE78F
:101B40009DF8022002F00701012000FA01F39DF840
:101B500003006FF0700101EA0211421840F2100117
:101B6000C2F20001885C1843885415E09DF80220F9
:101B700002F00701012000FA01F39DF803006FF065
:101B8000700101EA0211421840F21001C2F2000194
:101B9000885C98438854FFE701B0704780B582B0F5
:101BA00000208DF80700FFE79DF80700072831DCCB
:101BB000FFE79DF80700B030C0B200F02DF800201C
:101BC000009000F029F8102000F026F800988DF819
:101BD0000600FFE79DF806007F2814DCFFE79DF86C
:101BE00006009DF8071000EBC11140F21000C2F290
:101BF0000000405C00F01CF8FFE79DF80600013093
:101C00008DF80600E6E7FFE79DF8070001308DF844
:101C10000700C9E702B080BD80B582B08DF807002B
:101C20009DF807203C20002100F056F902B080BD4D
:101C300080B582B08DF807003C2040210DF10702ED
:101C4000012300F0F9F802B080BD000070470000E9
:101C500082B00190019840F20001C2F200010968CF
:101C6000C90844F6D352C1F26202A1FB02218909DC
:101C700048430090FFE700BFFFE70098411E009136
:101C80000028F8D1FFE702B07047000080B540F6A9
:101C90000040C4F2010040210122FEF7FBFE00F0EB
:101CA000CFFB80BD80B540F60040C4F2010040216A
:101CB0000022FEF7EFFE00F0C3FB80BD80B540F6CA
:101CC0000040C4F2010080210122FEF7E3FE00F093
:101CD000B7FB80BD80B540F60040C4F20100802112
:101CE0000022FEF7D7FE00F0ABFB80BD80B540F6CA
:101CF0000040C4F201008021FEF7B4FE80BD000068
:101D00007047000080B588B00020079006900590CD
:101D10000490FFE741F21800C4F20200016841F0AC
:101D200008010160006800F0080003900398FFE7D5
:101D3000C0200490112005900120029006900320FD
:101D4000079040F60040C4F20100019004A9FEF79C
:101D5000F9FC0198029A4021FEF79CFE0198029A34
:101D60008021FEF797FE00F06BFB08B080BD0000FD
:101D700080B584B08DF80E008DF80D1002928DF8AC
:101D8000073000F0B5FB9DF80E004000C0B200F037
:101D9000C3FB30B1FFE700F0B5FB01208DF80F0069
:101DA00045E09DF80D0000F0B7FB30B1FFE700F013
:101DB000A9FB01208DF80F0039E000F0A3FB00F033
:101DC00097FB9DF80E0040000130C0B200F0A4FB6C
:101DD00030B1FFE700F096FB01208DF80F0026E000
:101DE00000208DF80600FFE79DF806009DF807101B
:101DF000884216DAFFE79DF806009DF80710401AA2
:101E00000130B0FA80F0400900F02AFB02999DF8F9
:101E100006208854FFE79DF8060001308DF8060083
:101E2000E2E700F06FFB00208DF80F00FFE79DF860
:101E30000F0004B080BD000080B584B08DF80E00A6
:101E40008DF80D1002928DF8073000F051FB9DF8CF
:101E50000E004000C0B200F05FFB30B1FFE700F0C1
:101E600051FB01208DF80F0031E09DF80D0000F0CE
:101E700053FB30B1FFE700F045FB01208DF80F0068
:101E800025E000208DF80600FFE79DF806009DF88C
:101E90000710884215DAFFE702989DF80610405CAB
:101EA00000F03AFB30B1FFE700F02CFB01208DF889
:101EB0000F000CE0FFE79DF8060001308DF80600EA
:101EC000E3E700F01FFB00208DF80F00FFE79DF80F
:101ED0000F0004B080BD000080B582B08DF8060010
:101EE0008DF805108DF8042000F002FB9DF8060027
:101EF0004000C0B200F010FB30B1FFE700F002FB81
:101F000001208DF807001DE09DF8050000F004FB9E
:101F100030B1FFE700F0F6FA01208DF8070011E07C
:101F20009DF8040000F0F8FA30B1FFE700F0EAFA9B
:101F300001208DF8070005E000F0E4FA00208DF89C
:101F40000700FFE79DF8070002B080BD80B582B0B2
:101F5000009000980138B0F1807F03D3FFE70120A3
:101F6000019019E0009801384EF21401CEF2000100
:101F700008604FF0FF300F2100F0A4F84EF2180176
:101F8000CEF20001002008604EF21002CEF20002F4
:101F9000072111600190FFE7019802B080BD0000A9
:101FA00080B5FEF795FD80BD80B592B008A8019080
:101FB0002821FEF7EFF80198002102910791069180
:101FC0000591049103910222089201220C921022A1
:101FD0000D920F91FEF7DEFF02990F2003900491FE
:101FE00005910691079103A8FEF720FE12B080BD6F
:101FF0007047000080B584B00390039800680069C2
:1020000020F44050039A1168D26810430861039984
:1020100088680A6949691043084302900398006878
:10202000C06841F20C61884302990843039909682A
:10203000C86003980068406920F44070039A1168F2
:102040009269104348610398006843F60001C4F2A6
:102050000101884204D1FFE7FEF72CFF019003E065
:10206000FEF716FF0190FFE7019819214843039AF4
:10207000116852689200B0FBF2FC48F21F52C5F2A0
:10208000EB12ACFB02304309642003FB10CC32207E
:1020900000EB0C10A0FB0202F02000EA521000EB53
:1020A0000310C2F343121044886004B080BD0000E6
:1020B000FFE7FEE74EF60C50CEF200000068C0F3DA
:1020C0000220704782B08DF8070000919DF907004B
:1020D00000280AD4FFE7009800019DF907104EF28E
:1020E0000042CEF2000288540BE0009800019DF8F7
:1020F000071001F00F014EF61452CEF20002885480
:10210000FFE702B07047000083B00290029800F031
:10211000070000904EF60C51CEF2000108680190C5
:1021200001984FF6FF02104001900198009A40EA92
:1021300002200022C0F2FA52104301900198086078
:1021400003B0704782B0019040F2E840C2F2000054
:102150000068A0F5963000900198800340F210428C
:10216000C2F20002D18BA0EB0151B2F92000009B1A
:1021700000FB131000F58040C01392F92210594360
:10218000891292F81CC003FB0CFC4FF4004303EBD4
:10219000EC234B434FF4001101EBA321B2F91A30A9
:1021A000594301F500518913484300900098C11329
:1021B0004943C911127E5143A0EB211000900098B1
:1021C000B0F1FF3F03DCFFE700200090FFE700983D
:1021D000B0F1C85F04DDFFE74FF0C8500090FFE7A3
:1021E0000098001302B07047F0B589B0079040F234
:1021F000E840C2F200000168C817B1F5FA3160F199
:1022000000000491059004980599A0FB00C200FB12
:10221000012200FB012040F21041C2F20001B1F99D
:1022200010304FEAE37EACFB03240CFB0E4C00FBAA
:1022300003C002920390029A0398049C059BB1F993
:102240000EE04FEAEE75A4FB0EC604FB056403FB2B
:102250000E435B0443EADC3312EB4C4258410292DA
:102260000390029A0398B1F90C3000EBC30002927C
:102270000390049C059BA4FB045004FB030004FB97
:102280000300B1F908E0B1F90AC04FEAEC76A5FB0A
:102290000C2705FB067500FB0C5C4FEA2C20120A8C
:1022A00042EA0C624FEAEE75A4FB0EC604FB05641D
:1022B00003FB0E431B0343EA1C5312EB0C32584141
:1022C00004920590049A059800F50040C988A2FB85
:1022D000013200FB01214810C917059104900498B0
:1022E0000599084318B9FFE7002008907BE0079A9A
:1022F000D2F580114FF0000060EBE2700091019088
:10230000009B0198C00740EA53010298039AD0EB62
:10231000C370914140F63542A0FB020301FB02313C
:10232000049A059BFDF7FEFE0191009040F21042D9
:10233000C2F20002B2F91610C817009BDDF804C003
:102340005B0B43EACC434FEA6C3EA1FB03C401FBA9
:102350000E4100FB0311ACFB03040CFB0E4C01FB14
:1023600003C1400E40EAC110491605910490B2F92C
:1023700014C04FEAEC71009BDDF804E0ACFB0304F1
:102380000CFB0E4C01FB03C1C00C40EA4130C914E8
:102390000391029000990198DDF810C0059B11EBA4
:1023A0000C015841DDF808C0039B11EB0C014341BF
:1023B0001812090A41EA0361B2F91230DA17120160
:1023C00042EA137211EB0311504100910190009801
:1023D0000199CA1710EB126041F10001000A40EAAE
:1023E00001600890FFE7089809B0F0BD83B0029043
:1023F0000298C01040F21041C2F200010A88A0EB1E
:102400004200B1F902205043C0120190029A08889C
:10241000C0EB221040430013B1F90410484380136D
:10242000009001980099014440F2E840C2F2000097
:102430000160006800EB80008030001203B070473C
:1024400081B000200090FFE70098042805D8FFE73E
:10245000FFE7009801300090F6E701B070470000F8
:1024600080B582B08DF80700002000908DF806003E
:10247000FFF724FC00988DF80500FFE79DF80500A4
:1024800007281DDCFFE79DF8060040008DF80600D8
:10249000FFF7FCFBFFF7D4FFFFF728FC38B1FFE79D
:1024A0009DF8060040F001008DF80600FFE7FFF7F9
:1024B000F9FBFFE79DF8050001308DF80500DDE729
:1024C0009DF8070018B1FFE7FFF7F8FB02E0FFF700
:1024D00001FCFFE7FFF7B4FFFFF7D8FBFFF7B0FF02
:1024E000FFF7E0FBFFF7EAFB9DF8060002B080BDB6
:1024F00080B5FFF7E3FBFFF7C9FBFFF7EBFBFFF747
:10250000D1FB80BD80B5FFF7E5FBFFF7BFFBFFF711
:1025100097FFFFF7D3FB80BD80B582B08DF8070031
:1025200000208DF80600FFE79DF8060007281CDC58
:10253000FFE79DF807000006002803D5FFE7FFF737
:10254000BDFB02E0FFF7C6FBFFE79DF80700400078
:102550008DF80700FFF79AFBFFF7A4FBFFE79DF854
:10256000060001308DF80600DEE7FFF7A7FBFFF756
:1025700067FFFFF78BFBFFF763FFFFF7B7FB002851
:1025800018BF01208DF80500FFF78CFB9DF80500B2
:1025900002B080BD80B59EB0002009901D90FEF76E
:1025A000A5FAFFF701FDFFF7D9F8FFF7ABFBFFF73F
:1025B000F7F840F23440C2F20000FFF729FA762023
:1025C000069088210DF13A021A23FFF7D1FB0698F5
:1025D000E1210DF133020723FFF7CAFB06989DF8AE
:1025E0003A109DF83B2041EA022140F21042C2F22B
:1025F0000002079211809DF83C109DF83D3041EAA1
:10260000032151809DF83E109DF83F3041EA03219F
:1026100091809DF840109DF8413041EA0321D1801E
:102620009DF842109DF8433041EA032111819DF845
:1026300044109DF8453041EA032151819DF8461030
:102640009DF8473041EA032191819DF848109DF89B
:10265000493041EA0321D1819DF84A109DF84B3061
:1026600041EA032111829DF84C109DF84D3041EA5A
:10267000032151829DF84E109DF84F3041EA03210D
:1026800091829DF850109DF8513041EA0321D1828A
:102690009DF8531011769DF833109DF8343041EABF
:1026A000032151839DF8351011779DF836309DF840
:1026B000371001F00F0141EA0311D1839DF8371063
:1026C0009DF83830090941EA031111849DF8391049
:1026D00082F82210F2210122FFF7FEFB099A0698E8
:1026E000F521FFF7F9FB0698F4212722FFF7F4FB09
:1026F0001420FEF705F80798028840F2D040C2F295
:102700000000089043F24241C0F6000100F0CEF80C
:102710000999089A0846FFF7CFF907990898CA88D7
:1027200043F23C41C0F6000100F0C0F8089A099855
:102730000C21FFF7C1F907990898B1F91A2043F263
:102740003641C0F6000100F0B1F8089A0998182146
:10275000FFF7B2F9FFF722FA4FF4FA60FDF7D0FF66
:10276000FFE77620F72115AA0823FFF701FB88B1C0
:10277000FFE7FFF76FF843F22442C0F600020021A2
:102780000846FFF799F9FFF709FA4FF4FA60FDF7E9
:10279000B7FFE6E79DF854009DF855209DF85610C8
:1027A000000340EA021040EA111018909DF857000B
:1027B0009DF858209DF85910000340EA021040EAA5
:1027C00011101990BDF85A00000400BA179019981A
:1027D0000B9018980A900B98FFF708FE1C900A9827
:1027E000FFF702FD1A901798FFF7ACFC1B90FFF75C
:1027F00031F80022019210461146FFF7A9F801981E
:1028000010210122FFF7A4F8019820210222FFF7EE
:102810009FF81C9948F21F50C5F2EB100290A1FBE3
:10282000002042096420039002FB101340F2D040C4
:10283000C2F20000049043F21D41C0F6000100F016
:1028400035F8049A122005900421FFF735F9039B0F
:1028500004981B998A0A6FF39F2159438B0A43F20C
:102860001541C0F6000100F021F8049A05981421E2
:10287000FFF722F9029A039904981A9BA3FB02C25C
:10288000520902FB113343F22D41C0F6000100F062
:102890000DF8049A05982421FFF70EF9FFF77EF949
:1028A0004FF4FA60FDF72CFF5BE700000FB4084B14
:1028B00010B504A902AA039800F0DEF8044602A9A4
:1028C000002000F070FC204610BC5DF814FB0000F6
:1028D000A731000802E008C8121F08C1002AFAD177
:1028E00070477047002001E001C1121F002AFBD190
:1028F000704700002DE9FF5F82B00021DDE9043060
:10290000020DDDF840B0034318D044F61050A2F297
:10291000FF3242431514119801281FD0A5EB0B007C
:10292000401C5FEA000A4FF000064E4FDFF8389176
:10293000B046504615D5CAF1000413E011980124A1
:102940004AA3012801D16FEA0B010298119AC0E94C
:102950000031C0E9024206B0BDE8F09FCBF10000B3
:10296000DFE704460021404A491842EB0450CDE914
:10297000001012E0E00707D032463B464046494689
:10298000FDF701FD8046894632463B461046194612
:10299000FDF7F9FC06460F466410002CEAD1DDE98C
:1029A0000401DDE90023BAF1000F06DAFDF7EBFCC4
:1029B00042464B46FDF7E7FC05E0FDF756FD424673
:1029C0004B46FDF752FD04460E460022284BFDF70C
:1029D000D3FD03D84FF0FF30014607E00022254B1E
:1029E00020463146FDF728FCFDF7AEFD102409E036
:1029F000002C0ADB0A220023FDF7EDFB039B30329B
:102A00001A55641E50EA0102F2D1641C039AC4F103
:102A100011031444119A012A03D0012208430DD155
:102A20000AE0084304D000204FF0110B119072E728
:102A3000A3EB0B056D1E0DE05B4504DD4FF00002BE
:102A400005F1010504E003DA4FF00002A5F10105EC
:102A5000002AECD002981199C0E90231C0E9004582
:102A600079E70000000014400000F03F3000000053
:102A70000000F0430000E03F2DE9FF4F95B09B467A
:102A80008946064600250FE2252877D100242746EF
:102A9000F84A0121059400E0044316F8013F203B69
:102AA00001FA03F01042F7D130782A2811D06FF0E4
:102AB0002F033078A0F13002092A16D8059A44F085
:102AC000020402EB820203EB42021044761C0590E2
:102AD000EFE759F8042B0592002A03DA504244F438
:102AE0000054059044F00204761C30782E2816D14C
:102AF00016F8010F44F004042A280DD06FF02F02BD
:102B00003078A0F13003092B09D807EB870302EBDB
:102B10004303C718761CF3E759F8047B761C30781A
:102B20006C280FD006DC4C2817D068280DD06A28F6
:102B300014D104E0742810D07A280FD10DE044F4A9
:102B400000140AE044F4801401E044F44014727864
:102B5000824202D104F58014761C761C30786628F7
:102B60000BD013DC582877D009DC002875D0452815
:102B7000F6D04628F4D047281AD19DE118E0632802
:102B800035D0642879D0652812D195E1702873D0AA
:102B900008DC6728F1D069286FD06E280DD06F2827
:102BA00006D1B5E073282CD0752875D0782874D05C
:102BB0005A46179990476D1C75E1C4F302500228DC
:102BC00009D003280DD0D9F8001004280DD00D60CD
:102BD00009F1040967E1D9F80010EA17C1E90052C8
:102BE000F6E7D9F800100D80F2E70D70F0E719F85C
:102BF000041B8DF8001000208DF80100EA4601202A
:102C000003E059F804AB4FF0FF3061074FF00001CB
:102C100002D40DE008F101018846B9420FDA80457F
:102C2000F8DB1AF808100029F4D108E008F10101D6
:102C300088468142FADB1AF808100029F6D1059877
:102C40005B46A0EB080721463846179A00F094FA35
:102C5000284400EB080507E04DE029E10DE01AF8F3
:102C6000010B5A4617999047B8F10108F7D25B4615
:102C700021463846179A13E142E00A220092C4F333
:102C800002524FF0000A022A08D059F804CB032A56
:102C90004FEAEC710AD00DE029E02AE009F10701C2
:102CA00021F00702F2E802C1914609E00FFA8CFC1C
:102CB0004FEAEC71042A03D14FFA8CFC4FEAEC7115
:102CC000002907DA0A460021DCF1000C61EB020161
:102CD0002D2202E0220504D52B228DF804200122AA
:102CE00003E0E20701D02022F7E7904659E00A21ED
:102CF00002E010220DE010214FF0000A00910BE0DD
:102D000010224FF0000A44F004040827009203E068
:102D100008224FF0000A0092C4F30252022A05D0A2
:102D200059F804CB0021032A08D009E009F1070172
:102D300021F00702F2E802C1914605E01FFA8CFC7F
:102D4000042A01D10CF0FF0C4FF00008220728D50F
:102D5000702806D0009B83F0100353EA0A0305D0C5
:102D60000EE040228DF80420012208E05CEA010216
:102D700006D030228DF804208DF8050002229046FE
:102D8000009B83F0080353EA0A030AD15CEA0102BC
:102D900001D1620705D530228DF804204FF00108DB
:102DA0007F1E582804D034A003900EA802900DE096
:102DB00036A0F9E753466046009AFDF70CFA8446C0
:102DC0000398825C0298401E029002705CEA010047
:102DD000F0D1029806A9081A00F1200A600702D56E
:102DE00024F4803400E00127574502DDA7EB0A00F8
:102DF00000E0002000EB0A01009005984144401AD1
:102E00000590E00306D45B462146179A059800F02A
:102E1000B3F90544002706E001A85A46C05D17999A
:102E200090476D1C7F1C4745F6DBE0030CD55B46E5
:102E30002146179A059800F09FF9054404E03020D8
:102E40005A46179990476D1C0099481E009000291A
:102E5000F5DC08E0029802995A460078491C029174
:102E6000179990476D1CBAF10001AAF1010AF1DC33
:102E700065E100000928010030313233343536373E
:102E800038396162636465660000000030313233B6
:102E90003435363738394142434445460000000056
:102EA00000F058F90544761C307800287FF4ECAD2A
:102EB00019B02846BDE8F08F620700D4062709F153
:102EC000070222F0070CFCE80223E14603F0004869
:102ED0005FEA080C02D00FF2702C0DE05FEA045C90
:102EE00002D50FF2682C07E05FEAC47C02D00FF233
:102EF000602C01E0AFF2700C4FF0FF3823F000437C
:102F0000CDF850C065280CD006DC452809D04628ED
:102F10001DD047283DD13DE0662818D067287ED1D6
:102F200038E00021112F01DB112000E0781CCDE9F1
:102F3000000106A90EA8FFF7DDFCDDE90F010E9ADE
:102F400003910021009207F1010A04914DE04FF036
:102F500000400097CDE9011006A90EA8FFF7CAFCB2
:102F6000DDE90F0203920E9B11990022DDF80CA0FF
:102F70000093049211B9791C00EB010AB7EB0A0027
:102F800004D4C0F1FF3007F1010A0490AAEB070056
:102F9000019044E0012F00DA01270021112F01DD0B
:102FA000112000E03846CDE9000106A90EA8FFF780
:102FB000A1FCDDE90F010E9A03910021049100921A
:102FC000BA4621070CD40399514500DA8A46BAF172
:102FD000010F05DD009AAAF10101515C302908D0EA
:102FE000B84202DA10F1040F06DA0121CDE901102E
:102FF00015E0AAF10101E9E7002805DC0499014484
:103000000491AAEB000102E0411C514500DD8A4613
:103010000499401A401C01904FF000400290200794
:1030200004D40198504501DBCDF8048000208DF8D0
:103030004F0002980DF14F07B0F1004F25D02B2023
:103040000E9002984FF0020800280CDA40420290DD
:103050002D200E9007E00A210298FDF7A6F83031E6
:10306000029007F8011DB8F10001A8F10108F2DC97
:1030700002980028EFD1791E0E980870307800F081
:10308000200040F0450007F8020D12A8C01B00F117
:1030900007081498007800B1012000EB0A0101989C
:1030A00001EBE07105984144401A401E0590E00391
:1030B00006D45B462146179A059800F05DF8054452
:1030C0001498007818B15A46179990476D1CE00380
:1030D00024D55B462146179A059800F04DF8054423
:1030E0001CE00498002807DBDDE90301884203DDCA
:1030F0000098405C179901E0179930205A46904794
:10310000049805F10105401C04900198401E0190AF
:1031100004D12E205A46179990476D1CBAF1000130
:10312000AAF1010ADDDC05E017F8010B5A461799F0
:1031300090476D1CB8F10001A8F10108F4DC5B4672
:103140002146179A0598ABE62D0000002B000000E1
:10315000200000002DE9F041044600251E461746D8
:10316000880404D405E039462020B0476D1C641E55
:10317000F9D52846BDE8F0812DE9F0410446002547
:103180001E469046C80301D5302700E0202788045A
:1031900004D505E041463846B0476D1C641EF9D59C
:1031A0002846BDE8F0810A68531C0B601070704718
:1031B00000000000000000000102030406070809E7
:1031C0000000000001020304000000000000005F96
:1031D00000000007000700147F147F14242A7F2AB0
:1031E000122313086462364955225000050300007B
:1031F000001C2241000041221C00082A1C2A080849
:10320000083E080800503000000808080808006060
:1032100060000020100804023E5149453E00427FF4
:10322000400042615149462141454B311814127FFB
:103230001027454545393C4A494930017109050384
:103240003649494936064949291E003636000000EC
:10325000563600000008142241141414141441229C
:103260001408000201510906324979413E7E1111CC
:10327000117E7F494949363E414141227F414122E9
:103280001C7F494949417F090901013E41415132B1
:103290007F0808087F00417F41002040413F017FB7
:1032A000081422417F404040407F0204027F7F0497
:1032B00008107F3E4141413E7F090909063E4151C8
:1032C000215E7F09192946464949493101017F019B
:1032D000013F4040403F1F2040201F7F2018207F9B
:1032E00063140814630304780403615149454300DF
:1032F000007F4141020408102041417F0000040288
:1033000001020440404040400001020400205454A7
:1033100054787F484444383844444420384444482E
:103320007F3854545418087E090102081454543C40
:103330007F0804047800447D40002040443D0000A4
:103340007F10284400417F40007C041804787C08EA
:1033500004047838444444387C14141408081414C1
:10336000187C7C080404084854545420043F44400A
:10337000203C4040207C1C2040201C3C4030403CF5
:1033800044281028440C5050503C4464544C440091
:103390000836410000007F000000413608000808A0
:1033A0002A1C0802030405060708090A0B0C0D0E67
:1033B0000F101001020000000033F8120803F84259
:1033C00008320803F8000017FC34A424A424A464E1
:1033D000A45FFE00000000000023FC1A0403FC02AE
:1033E00004620433FC0000049214922294229C6034
:1033F000904FFE000000003FFC300030C030C03075
:10340000C037FC30C030D020D020D820C060C04FA2
:10341000FE0000000025642E256425250025642E6D
:1034200025644300493243204641494C0025642E1F
:1034300025646850610048323D25640050313D25C7
:10344000750054313D2575006834000800000020E7
:1034500010000000D4280008783400081000002074
:10346000E0080000E428000800127A0001000000D3
:08347000100000000000000044
:04000005080000ED02
:00000001FF
