:020000040800F2
:100000000009002001010008C1340008C92A0008C5
:10001000BD3400086D0D0008DD3B00080000000045
:10002000000000000000000000000000F13800089F
:10003000710D000800000000B138000849390008BF
:100040001B0100081B0100081B0100081B01000820
:100050001B0100081B0100081B0100081B01000810
:100060001B0100081B0100081B0100081B01000800
:100070001B0100081B0100081B0100081B010008F0
:100080001B0100081B0100081B0100081B010008E0
:100090001B0100081B0100081B0100081B010008D0
:1000A0001B0100081B0100081B0100081B010008C0
:1000B0001B0100081B0100081B0100081B010008B0
:1000C0001B0100081B0100081B0100081B010008A0
:1000D0001B0100081B0100081B0100081B01000890
:1000E0001B0100081B0100081B010008DFF80CD0F1
:1000F00000F04CFB00480047913C0008000900203C
:100100000648804706480047FEE7FEE7FEE7FEE7B1
:10011000FEE7FEE7FEE7FEE7FEE7FEE7AD39000893
:10012000ED0000082DE9F0410024061B254671F181
:10013000000605DA01240027D0EB070067EB010178
:10014000161E73F1000605DA0027D2EB070201251F
:1001500067EB030300F0FAF886460E4617469C4606
:10016000AC4204D00025D0EB050E65EB010624B1AE
:100170000020D2EB000760EB030C704631463A4694
:100180006346BDE8F081D2B201E000F8012B491EC0
:10019000FBD270470022F6E710B513460A46044624
:1001A0001946FFF7F0FF204610BD80EA010210B5A6
:1001B00002F00043400022D04A001FD0010E01EBA4
:1001C0001261C0F35600C2F3560240F4000042F43C
:1001D0000002A0FB022000047F39140400D0401C60
:1001E00050EA124001D44000491EC2B20C0604EB92
:1001F000D010401C4008802A02D003E0002010BD2F
:1002000020F00100002900DA0020184310BD30B4AE
:1002100080EA010202F0004530F0004221F0004087
:1002200013D090B1C30DD40DC2F31601C0F3160064
:10023000E41A41F4000140F400027D34914201D3FC
:10024000641C00E04900002C02DA30BC002070473A
:100250004FF400000023914201D3891A0343400860
:100260004FEA4101F7D151B1914202D14FF0004123
:1002700005E002D24FF0010101E06FF0010103EB54
:10028000C450284430BC00F092B8C10F80EAE0703E
:100290000844CA079623002100F092B8F0B4CA17A8
:1002A000CB0F50405140C61841F100054FEAC372D0
:1002B000314628004FF0960303D0B623F0BC00F07F
:1002C0007FB830460021F9E700F0004220F00040FE
:1002D000C10DC0F3160040F400007F2901DA0020B0
:1002E0007047962903DCC1F19601C84001E09639B8
:1002F0008840002AF4D04042704700F0004230F0BD
:1003000000400AD0C10D01F56071C0F3160042EA49
:100310000151C20840071143704700200146704751
:1003200030B50B46014600202022012409E021FAC5
:1003300002F59D4205D303FA02F5491B04FA02F5C2
:100340002844151EA2F10102F1DC30BD2DE9F05F59
:100350000546002092469B46884606468146402434
:100360001BE0284641464746224600F030FA5346F5
:100370005A46C01A914110D311461846224600F041
:1003800017FA2D1A67EB01084F462246012000217B
:1003900000F00EFA17EB00094E41201EA4F10104F3
:1003A000DFDC484631462A464346BDE8F09F002937
:1003B000A8BF7047401C490008BF20F001007047EB
:1003C00010B4B0FA80FC00FA0CF050EA010404BF4B
:1003D00010BC704749B1CCF1200421FA04F411FAA1
:1003E0000CF118BF012121430843A3EB0C01CB1DE5
:1003F0004FEA00614FEA102042BF002010BC704756
:1004000000EBC35010440029A4BF10BC7047401C2F
:10041000490008BF20F0010010BC70472DE9FE4FD5
:10042000804681EA0300C00F0C46009021F0004195
:1004300023F00045B8EB0200A94105D24046214611
:1004400090461C460B46024623F00040104347D01E
:10045000270DC7F30A00C3F30A510290401A019016
:1004600040286BDAC3F3130040F4801B00989246D7
:1004700020B10023D2EB030A63EB0B0B0198594622
:10048000C0F14002504600F093F906460D46504632
:100490005946019A00F0ABF910EB080061410024C5
:1004A00087EA115284EAE7731A4340D0009A62B394
:1004B000019A012A4FEA075215DC001B61EB020189
:1004C0004FF0004202EA0752CDE90042001C41F51C
:1004D000801132462B4600F0ABF903B0BDE8F08F37
:1004E00040462146F9E7001B61EB0201001C41F583
:1004F000801300185B412018A2F5001747EB030199
:1005000040EAD570B6196D4111E06D084FEA360624
:1005100045EAC0754FEA0752001B61EB0201001C5F
:1005200041F5801149084FEA300000195141324627
:100530002B4603B0BDE8F04F00F06BB900980122E4
:1005400040000023D0EB020263EBE07300982146E9
:100550004FEAE074B8EB000061EB0401E9E783F0D7
:1005600000435BE781F0004158E72DE9FE4F81EA47
:10057000030404F0004421F0004100944FF0000B0C
:1005800023F0004350EA01045ED052EA03045BD03A
:10059000C3F30A54C1F30A552C44A4F2F334019472
:1005A000A0FB0254C1F3130141F48011C3F3130300
:1005B00043F4801301FB024400FB034E840A970AB4
:1005C00044EA815447EA8357A4FB076802958D0AE1
:1005D00005FB07854FEA932C04FB0C542705029D6D
:1005E0004FEA065847EA1637B5EB08056EEB070CDD
:1005F000870E920E47EA811742EA8312A7FB020197
:10060000B6EB0B0164EB00042B0D43EA0C335E18D0
:1006100044EB1C50DA465146E7FB0201C5F31304D4
:100620004FEA0B3343EA14534FEA0432019C43EA86
:100630000603A4F10C040294009CCDE900B400F080
:10064000F7F803B0BDE8F08F00200146F9E72DE987
:10065000F04D81EA030404F0004B21F000451446FC
:100660004FF0000A23F0004150EA050220D054EA7E
:1006700001021DD0C5F30A570246C5F31303C1F3A7
:100680001300C1F30A5640F4801543F48013A7EB1E
:100690000608101BD64608F2FD3873EB050002D39E
:1006A00008F1010801E092185B41B8F1000F03DA8C
:1006B00000200146BDE8F08D00204FF48011064671
:1006C00084460EE0171B73EB050705D3121B63EB83
:1006D000050306434CEA010C49084FEA3000921822
:1006E0005B4150EA0107EDD152EA030012D082EAE1
:1006F000040083EA0501084305D0101BAB4106D274
:100700000122002306E000224FF0004302E06FF0D8
:10071000010253101AEB06004CEB085110EB0A00D3
:1007200041EB0B01BDE8F04D00F073B8C1F30A5284
:10073000C1F3130140F2FF3341F480119A4202DA0F
:1007400000200146704740F233439A42A2F23342FE
:1007500002DC524200F03BB800F02AB830B5041E6B
:1007600071F1000404DB4FF00044404264EB0101EE
:10077000141E73F1000405DB1C464FF00043524287
:1007800063EB0403994208BF904230BD064C074D0D
:1007900006E0E06840F0010394E807009847103451
:1007A000AC42F6D3FFF7A6FCE04D0008004E00086F
:1007B000202A04DB203A00FA02F100207047914021
:1007C000C2F1200320FA03F3194390407047202A16
:1007D00004DB203A21FA02F00021704721FA02F3EB
:1007E000D040C2F120029140084319467047202AA8
:1007F00006DBCB17203A41FA02F043EAE07306E049
:1008000041FA02F3D040C2F1200291400843194658
:10081000704710B5141E73F1000408DA401C41F152
:10082000000192185B411A4301D120F0010010BD74
:100830002DE9F04D92469B4611B1B1FA81F202E0EA
:10084000B0FA80F220329046FFF7B2FF04460F461E
:1008500040EA0A0041EA0B0153465A46084313D0C6
:10086000114653EA010019D0C8F140025046FFF783
:10087000AEFF05460E46504659464246FFF798FFE2
:10088000084305D0012004E020463946BDE8F08D3C
:100890000020054346EAE0762C4337430A98630577
:1008A000E40AA0EB08000022FD0A44EA47540A309B
:1008B00002D500200146E9E7010510196941DDE98B
:1008C000084500196941BDE8F04DA2E780B582B046
:1008D00001900198F421252203F014FC02B080BDA0
:1008E00080B584B00290029800F016FA8DF80700E7
:1008F0009DF80700FF2804D1FFE701208DF80F00C5
:100900002DE09DF80700602804D0FFE702208DF855
:100910000F0024E0029800F01BFA0A2000F032FADF
:10092000029803F02FFB20B1FFE701208DF80F00A4
:1009300015E00298F221012203F0E4FB0298F42171
:10094000252203F0DFFB0298F521042203F0DAFBF5
:10095000052000F017FA00208DF80F00FFE79DF842
:100960000F0004B080BD0000F0B599B0179016914B
:10097000159214931798F72112AA082303F0A6FBE7
:1009800020B1FFE701208DF86300C1E19DF8480028
:100990009DF849209DF84A10000340EA021040EA01
:1009A000111010901098B0F5002F05DBFFE710989C
:1009B000A0F580101090FFE79DF84B009DF84C20AB
:1009C0009DF84D10000340EA021040EA111011900A
:1009D0001198B0F5002F05DBFFE71198A0F5801006
:1009E0001190FFE79DF84E109DF84F0061F30F2026
:1009F0000F901198C01040F21041C2F20001039113
:100A00000A88A0EB4200B1F902205043C0120E90B8
:100A1000119A0888C0EB221040430013B1F904106A
:100A2000484380130D900E980D99014440F2F44014
:100A3000C2F2000004900160006800EB800080308A
:100A400000120C900C98FFF720FC0021C4F2C82182
:100A5000FFF7DDFB039902460498169B1A600268B3
:100A6000D017B2F5FA3260F100000A920B900A98A2
:100A70000B9AA0FB00C300FB023300FB0230B1F96C
:100A800010304FEAE37EACFB03240CFB0E4C00FB62
:100A900003C008920990089A09980A9C0B9BB1F927
:100AA0000EE04FEAEE75A4FB0EC604FB056403FBE3
:100AB0000E435B0443EADC3312EB4C42584108928C
:100AC0000990089A0998B1F90C3000EBC30008921C
:100AD00009900A9C0B9BA4FB045004FB030004FB3D
:100AE0000300B1F908E0B1F90AC04FEAEC76A5FBC2
:100AF0000C2705FB067500FB0C5C4FEA2C20120A44
:100B000042EA0C624FEAEE75A4FB0EC604FB0564D4
:100B100003FB0E431B0343EA1C5312EB0C325841F8
:100B20000A920B900A9A0B9800F50040C988A2FB24
:100B3000013200FB01214810C9170B910A900A9855
:100B40000B99084300287CD0FFE7109AD2F580115A
:100B50004FF0000060EBE27006910790069B07984B
:100B6000C00740EA53010898099AD0EBC37091413D
:100B700040F63542A0FB020301FB02310A9A0B9BAF
:100B8000FFF7D0FA0791069040F21042C2F200023D
:100B9000B2F91610C817069BDDF81CC05B0B43EAC0
:100BA000CC434FEA6C3EA1FB03C401FB0E4100FBAA
:100BB0000311ACFB03040CFB0E4C01FB03C1400E04
:100BC00040EAC11049160B910A90B2F914C04FEADD
:100BD000EC71069BDDF81CE0ACFB03040CFB0E4C37
:100BE00001FB03C1C00C40EA4130C91409910890CF
:100BF00006990798DDF828C00B9B11EB0C015841B2
:100C0000DDF820C0099B11EB0C0143411812090AC1
:100C100041EA0361B2F91230DA17120142EA1372A3
:100C200011EB031150410691079006980799FFF7C1
:100C300035FB0021C4F2C861FFF7E9FA1499086096
:100C400003E0149900200860FFE740F2F440C2F28C
:100C500000000068A0F5963005900F98800340F2E0
:100C60001042C2F20002D18BA0EB0151B2F9200078
:100C7000059B00FB131000F58040C01392F9221071
:100C80005943891292F81CC003FB0CFC4FF400433B
:100C900003EBEC234B434FF4001101EBA321B2F91A
:100CA0001A30594301F500518913484305900598BE
:100CB000C1134943C911127E5143A0EB2110059085
:100CC0000598B0F1FF3F03DCFFE70020029002E04F
:100CD00005980290FFE7029805900598B0F1C85F6B
:100CE00004DDFFE74FF0C850019002E00598019045
:100CF000FFE7019805900598FFF7C7FA4FF0894183
:100D0000FFF785FA1599086000208DF86300FFE76A
:100D10009DF8630019B0F0BD80B584B0029000204A
:100D20008DF807000298D0210DF10702012303F08E
:100D3000CDF920B1FFE7FF208DF80F0004E09DF80A
:100D400007008DF80F00FFE79DF80F0004B080BD8D
:100D500080B582B001900198E021B62203F0D2F96B
:100D60000A2000F00FF802B080BD0000FFE7FEE7A8
:100D70007047000081B0EFF3108072B60090FFE77B
:100D8000FEE7000080B584B0039000F0ADF902905A
:100D9000039801900198013048B1FFE740F2080044
:100DA000C2F200000178019808440190FFE7FFE7D4
:100DB00000F09AF90299401A0199884201D2FFE79E
:100DC000F6E704B080BD000090B00F900E910020B7
:100DD0000D900990FFE70E9800680D99C840002813
:100DE00000F07F81FFE70D99012088400C900E985C
:100DF00000680C9908400B900B980C99884240F0C1
:100E00006C81FFE70E9840680590002851D0FFE7FD
:100E1000059801283AD0FFE7059802283FD0FFE760
:100E2000059803285FD0FFE70598112832D0FFE727
:100E30000598122838D0FFE705980021C1F211016A
:100E4000884236D0FFE705980021C1F2120188429E
:100E50002FD0FFE705980021C1F22101884228D058
:100E6000FFE705980021C1F22201884221D0FFE767
:100E700005980021C1F2310188421AD0FFE7059898
:100E80000021C1F23201884213D02FE00E98C068D1
:100E900009902CE00E98C0680430099027E00E9865
:100EA000C0680830099022E00E98C0680C300990A4
:100EB0001DE00E98806818B9FFE70420099011E042
:100EC0000E988068012806D1FFE7082009900C9849
:100ED0000F99086105E0082009900C980F99486166
:100EE000FFE7FFE703E00020099000E0FFE70B9831
:100EF000FF2803D8FFE70F98049003E00F98043011
:100F00000490FFE7049808900B98FF2804D8FFE7A7
:100F10000D988000039006E00D996FF01F0000EB24
:100F200081000390FFE70398079008980068079AEC
:100F30000F2191408843099991400843089908601E
:100F40000E98C079C006002840F1C680FFE7FFE791
:100F500041F21800C4F20200016841F00101016091
:100F6000006800F0010006900698FFE70D9820F059
:100F700003000821C4F2010140580A900D9800F0C6
:100F8000030081000F2000FA01F10A9888430A90BB
:100F90000F9840F60001C4F20101884203D1FFE737
:100FA0000020029026E00F9840F60041C4F20101B3
:100FB000884203D1FFE70120019018E00F9841F229
:100FC0000001C4F20101884203D1FFE70220009032
:100FD0000AE00F9941F20042C4F20102042091425A
:100FE00008BF03200090FFE700980190FFE70198F9
:100FF0000290FFE702980D9901F00301890000FAC1
:1010000001F10A9808430A900A980D9921F003010A
:101010000822C4F2010288500E988079C006002888
:1010200009D5FFE70B9A40F20841C4F201010868B4
:101030001043086008E00B9A40F20841C4F2010135
:10104000086890430860FFE70E98807980060028C2
:1010500009D5FFE70B9A40F20C41C4F20101086880
:101060001043086008E00B9A40F20C41C4F2010101
:10107000086890430860FFE70E9880798007002891
:1010800009D5FFE70B9A40F20441C4F20101086858
:101090001043086008E00B9A40F20441C4F20101D9
:1010A000086890430860FFE70E988079C00748B150
:1010B000FFE70B9A40F20041C4F2010108681043B7
:1010C000086008E00B9A40F20041C4F20101086890
:1010D00090430860FFE7FFE7FFE70D9801300D90B0
:1010E00079E610B07047000040F2F840C2F200000C
:1010F0000068704780B58EB00C900C9820B9FFE75F
:1011000001208DF8370043E10C9890F83D0040B97C
:10111000FFE70C99002081F83C000C9800F0B8FD26
:10112000FFE70C99242081F83D000C9801680868BD
:1011300020F0010008600C980168086840F4004045
:1011400008600C980168086820F40040086000F00E
:10115000BFFF0A900C98406848F2A061C0F20101FC
:1011600088420BD8FFE70A9948F28042C0F21E027B
:101170000020914238BF012009900AE00A9940F608
:101180000012C0F23D020020914238BF01200990B8
:10119000FFE70998012804D1FFE701208DF8370007
:1011A000F6E00A984DF68361C4F21B31A0FB0110F2
:1011B000800C0B900C980068406820F03F000B9961
:1011C00008430C99096848600C980068006A20F090
:1011D0003F0008900C98406848F2A061C0F20101FD
:1011E000884204D8FFE70B98013007900EE00B9877
:1011F0004FF49671484344F6D351C1F26201A0FB0B
:101200000101012000EB91100790FFE70898079972
:1012100008430C99096808620C980068C0694CF68C
:10122000FF71884306900C98406848F2A061C0F2B4
:10123000010188421FD8FFE70A9801380C994968D4
:101240004900B0FBF1F001306FF31F30032803D8E1
:10125000FFE7042005900BE00A9801380C994968D3
:101260004900B0FBF1F001306FF31F300590FFE74C
:10127000059804904CE00C98806868B9FFE70A98DC
:1012800001380C99496801EB4101B0FBF1F00130E4
:101290006FF31F3003900DE00A9801380C994968EC
:1012A00019225143B0FBF1F00130042161F31F30EA
:1012B0000390FFE70398000518B9FFE701200290AB
:1012C00023E00C98806868B9FFE70A9801380C9908
:1012D000496801EB4101B0FBF1F001306FF31F30C1
:1012E00001900DE00A9801380C9949681922514380
:1012F000B0FBF1F00130042161F31F300190FFE7F2
:10130000019840F400400290FFE702980490FFE744
:101310000698049908430C990968C8610C980068FC
:10132000006820F0C0000C9B1968DA691B6A1A4338
:10133000104308600C980068806848F2FF318843C9
:101340000C9A1168D36812691A43104388600C988C
:101350000068C06820F0FF000C9B19685A699B69FF
:101360001A431043C8600C980168086840F00100F7
:1013700008600C99002008640C9A202182F83D1026
:101380000C9908630C9981F83E008DF83700FFE74F
:101390009DF837000EB080BD80B588B0DDF828C05C
:1013A0000690ADF816100492ADF80E30FFF79CFED3
:1013B0000290069890F83D00202840F0E980FFE771
:1013C000069802996A4611600221C0F210010122BA
:1013D000192301F01DFE20B1FFE702208DF81F0048
:1013E000DAE0FFE7069890F83C00012804D1FFE717
:1013F00002208DF81F00CFE00699012081F83C0003
:10140000FFE7FFE7069800680068C00738B9FFE704
:1014100006980168086840F001000860FFE7069838
:101420000168086820F4006008600699212081F8AE
:101430003D000699102081F83E00069900200864BE
:10144000049806994862BDF80E00069948850698EA
:10145000408D0699088506990020CFF6FF70C86276
:101460000698BDF816100A9A029B01F061FB20B1A4
:10147000FFE701208DF81F008EE0FFE700200190BC
:10148000069800684069019006980068806901909C
:101490000198FFE7FFE70698008D002860D0FFE77E
:1014A00006980A99029A01F04FFF80B1FFE706986B
:1014B000006C042807D1FFE706980168086840F42B
:1014C00000700860FFE701208DF81F0064E00698B7
:1014D0000168406A007808610699486A01304862EC
:1014E0000699488D013848850699088D0138088588
:1014F00006980068406900F004010120B0EB910FEC
:1015000016D1FFE70698008D90B1FFE706980168B5
:10151000406A007808610699486A01304862069975
:10152000488D013848850699088D01380885FFE700
:1015300006980A99029A01F015FD80B1FFE7069816
:10154000006C042807D1FFE706980168086840F49A
:1015500000700860FFE701208DF81F001CE09AE78B
:1015600006980168086840F4007008600699202019
:1015700081F83D000699002081F83E00FFE70699BA
:10158000002081F83C00FFE700208DF81F0003E0F9
:1015900002208DF81F00FFE79DF81F0008B080BDF6
:1015A00010B590B0844614981398DDF848E0CDF853
:1015B00028C0ADF82610ADF82420ADF82230ADF8E3
:1015C000200000200790FFF78FFD06900A9890F802
:1015D0003D00202840F04B82FFE70A9806996A46B2
:1015E00011600221C0F210010122192301F010FD47
:1015F00020B1FFE702208DF82F003CE2FFE70A98B8
:1016000090F83C00012804D1FFE702208DF82F005C
:1016100031E20A99012081F83C00FFE7FFE70A98D0
:1016200000680068C00738B9FFE70A9801680868D1
:1016300040F001000860FFE70A980168086820F49C
:10164000006008600A99222081F83D000A99402034
:1016500081F83E000A990020086412980A994862AD
:10166000BDF820000A9948850A98408D0A99088596
:101670000A990020CFF6FF70C8620A98BDF82610BC
:10168000BDF82420BDF82230DDF850C0069CEE469F
:10169000CEF80440CEF800C001F0D4FA20B1FFE744
:1016A00001208DF82F00E6E10A98008DA0B9FFE730
:1016B000FFE7002005900A980068406905900A98A5
:1016C0000068806905900598FFE70A980168086836
:1016D00040F4007008605DE00A98008D01281FD179
:1016E000FFE70A980168086820F480600860EFF35B
:1016F000108072B60F90FFE7002004900A980068EF
:10170000406904900A980068806904900498FFE793
:101710000A980168086840F40070086062B638E012
:101720000A98008D02281FD1FFE70A98016808680F
:1017300040F400600860EFF3108072B60E90FFE78F
:10174000002003900A980068406903900A98006896
:10175000806903900398FFE70A980168086820F4FD
:101760008060086062B613E00A980168086840F477
:1017700080600860FFE7002002900A9800684069D6
:1017800002900A980068806902900298FFE7FFE7DC
:10179000FFE7FFE7FFE70A98008D002800F055817A
:1017A000FFE70A98008D032800F20781FFE70A98F7
:1017B000008D01281ED1FFE70A981499069A01F0BE
:1017C00055FD20B1FFE701208DF82F0053E10A9865
:1017D000006800690A99496A08700A99486A0130E4
:1017E00048620A99088D013808850A99488D0138A0
:1017F0004885E1E00A98008D022841D1FFE70A9868
:10180000149B06996A4611600421C0F2010100226E
:1018100001F0FEFB20B1FFE701208DF82F002AE147
:10182000EFF3108072B60D900A980168086840F4D2
:10183000007008600A98006800690A99496A08708F
:101840000A99486A013048620A99088D013808856A
:101850000A99488D0138488562B60A98006800697F
:101860000A99496A08700A99486A013048620A99D7
:10187000088D013808850A99488D013848859AE015
:101880000A98149B06996A4611600421C0F201016E
:10189000002201F0BDFB20B1FFE701208DF82F00F1
:1018A000E9E00A980168086820F480600860EFF3B6
:1018B000108072B60C900A98006800690A99496A0B
:1018C00008700A99486A013048620A99088D0138FF
:1018D00008850A99488D0138488540F20400C2F213
:1018E0000000006848F21F51C5F2EB11A0FB011087
:1018F000C00844F6D351C1F26201A0FB0110800977
:10190000232148430790FFE707980138079007987D
:10191000D0B9FFE70A99002008630A9A202182F8CB
:101920003D100A9981F83E000A99086C40F02000A9
:10193000086462B6FFE70A99002081F83C00FFE7DF
:1019400001208DF82F0096E0FFE70A9800684069B3
:1019500000F004010020B0EB910FD5D0FFE70A980A
:101960000168086840F4007008600A98006800691F
:101970000A99496A08700A99486A013048620A99C6
:10198000088D013808850A99488D0138488562B666
:101990000A98006800690A99496A08700A99486AB1
:1019A000013048620A99088D013808850A99488DE6
:1019B00001384885FFE7FFE746E00A981499069A40
:1019C00001F054FC20B1FFE701208DF82F0052E018
:1019D0000A98006800690A99496A08700A99486A71
:1019E000013048620A99088D013808850A99488DA6
:1019F000013848850A980068406900F00401012018
:101A0000B0EB910F1FD1FFE70A98008D032807D193
:101A1000FFE70A980168086820F480600860FFE723
:101A20000A98006800690A99496A08700A99486A20
:101A3000013048620A99088D013808850A99488D55
:101A400001384885FFE7FFE7A5E60A99202081F8DD
:101A50003D000A99002081F83E00FFE70A99002026
:101A600081F83C00FFE700208DF82F0003E0022002
:101A70008DF82F00FFE79DF82F0010B010BD00007B
:101A800010B588B084460C980B98DDF828E0CDF8A6
:101A900018C0ADF81610ADF81420ADF81230ADF83E
:101AA0001000FFF721FB0390069890F83D002028D6
:101AB00040F0E680FFE7069803996A46116002212C
:101AC000C0F210010122192301F0A2FA20B1FFE7B0
:101AD00002208DF81F00D7E0FFE7069890F83C0041
:101AE000012804D1FFE702208DF81F00CCE0069901
:101AF000012081F83C00FFE7FFE7069800680068D6
:101B0000C00738B9FFE706980168086840F001008F
:101B10000860FFE706980168086820F40060086024
:101B20000699212081F83D000699402081F83E0069
:101B30000699002008640A9806994862BDF81000CA
:101B4000069948850698408D0699088506990020D3
:101B5000CFF6FF70C8620698BDF81610BDF81420C5
:101B6000BDF81230DDF830C0039CEE46CEF80440DC
:101B7000CEF800C001F058F920B1FFE701208DF840
:101B80001F0081E0FFE70698008D002849D0FFE79D
:101B900006980C99039A01F0D7FB80B1FFE70698ED
:101BA000006C042807D1FFE706980168086840F434
:101BB00000700860FFE701208DF81F0064E00698C0
:101BC0000168406A007808610699486A01304862F5
:101BD0000699088D013808850699488D0138488591
:101BE00006980068406900F004010120B0EB910FF5
:101BF00016D1FFE70698008D90B1FFE706980168BF
:101C0000406A007808610699486A0130486206997E
:101C1000088D013808850699488D01384885FFE709
:101C2000B1E706980C99039A01F09CF980B1FFE79F
:101C30000698006C042807D1FFE706980168086839
:101C400040F400700860FFE701208DF81F001BE0E2
:101C500006980168086840F4007008600699202022
:101C600081F83D000699002081F83E00FFE70699C3
:101C7000002081F83C00FFE700208DF81F0003E002
:101C800002208DF81F00FFE79DF81F0008B010BD6F
:101C900080B588B0079000200690059004900390CE
:101CA0000798006845F20041C4F2000188422CD137
:101CB000FFE7FFE741F21800C4F20200016841F0BB
:101CC00008010160006800F0080002900298FFE738
:101CD000FFE741F21C00C4F20200016841F4001168
:101CE0000160006800F4001001900198FFE7C02037
:101CF0000390122004900320069040F60040C4F2A6
:101D0000010003A9FFF760F8FFE708B080BD0000FD
:101D100040F20800C2F20000027840F2F841C2F23C
:101D200000010868104408607047000080B542F266
:101D30000001C4F20201086840F0100008600320AE
:101D400000F08CF80F2000F005F800F03BF80020C0
:101D500080BD000080B582B0009040F20400C2F265
:101D60000000006840F20801C2F200010A784FF456
:101D70007A71B1FBF2F1B0FBF1F000F069FD20B136
:101D8000FFE701208DF8070018E000980F280DD814
:101D9000FFE700994FF0FF30002200F045F800986F
:101DA00040F20C01C2F20001086003E001208DF84E
:101DB000070003E000208DF80700FFE79DF807000B
:101DC00002B080BD83B0FFE741F21800C4F2020008
:101DD000016841F001010160006800F0010002901B
:101DE0000298FFE7FFE741F21C00C4F2020001681D
:101DF00041F080510160006800F08050019001982E
:101E0000FFE7FFE70421C4F2010108680090009891
:101E100020F0E0600090009840F080600090009812
:101E20000860FFE703B0704780B586B08DF81700F3
:101E3000049103920020029001F0D2FE02909DF9DD
:101E40001700019002980499039A01F03BFB0146A8
:101E5000019801F0CDFE06B080BD000080B582B0D3
:101E60000190019801F0E6FE02B080BD80B584B01B
:101E700002900191029820B9FFE701208DF80F0030
:101E80001BE1019842F20001C4F20201096801F06D
:101E90000701884216D9FFE742F20000C4F20200AF
:101EA000016821F00701019A11430160006800F008
:101EB00007000199884204D0FFE701208DF80F0048
:101EC000FBE0FFE702980078800700282AD5FFE7AB
:101ED000029800784007002809D5FFE741F2040185
:101EE000C4F20201086840F4E0600860FFE702986D
:101EF00000780007002809D5FFE741F20401C4F289
:101F00000201086840F460500860FFE741F20401F4
:101F1000C4F20201086820F0F000029A92681043AF
:101F20000860FFE702980078C007002860D0FFE74C
:101F30000298406801280ED1FFE741F20000C4F288
:101F4000020000688003002804D4FFE701208DF818
:101F50000F00B2E021E00298406802280ED1FFE7AE
:101F600041F20000C4F2020000688001002804D49D
:101F7000FFE701208DF80F009FE00DE041F2000027
:101F8000C4F2020000688007002804D4FFE70120A3
:101F90008DF80F0091E0FFE7FFE741F20401C4F282
:101FA0000201086820F00300029A5268104308609A
:101FB000FFF79AF80090FFE741F20400C4F2020034
:101FC000006800F00C0002994968B0EB810F0ED058
:101FD000FFE7FFF789F80099401A41F289318842FA
:101FE00004D3FFE703208DF80F0066E0E4E7FFE786
:101FF000019842F20001C4F20201096801F00701F0
:10200000884216D2FFE742F20000C4F202000168E3
:1020100021F00701019A11430160006800F00700F8
:102020000199884204D0FFE701208DF80F0044E0B9
:10203000FFE702980078400700280CD5FFE741F23F
:102040000401C4F20201086820F4E060029AD26838
:1020500010430860FFE702980078000700280DD5BC
:10206000FFE741F20401C4F20201086820F4605065
:10207000029A126940EAC2000860FFE700F04CF8DB
:1020800041F20401C4F202010968C9B20A0944F626
:102090005C21C0F60001895CC84040F20401C2F234
:1020A0000001086040F20C00C2F200000068FFF777
:1020B00051FE00208DF80F00FFE79DF80F0004B0DF
:1020C00080BD000040F20400C2F2000000687047CA
:1020D00080B5FFF7F7FF41F20401C4F2020109687D
:1020E000C1F3022244F66C21C0F60001895CC840AD
:1020F00080BD000080B5FFF7E5FF41F20401C4F2A6
:1021000002010968C1F3C22244F66C21C0F6000145
:10211000895CC84080BD000086B000200590049016
:1021200003900290019041F20400C4F202000068A2
:102130000590059800F00C000146009100283FD062
:10214000FFE70098042804D0FFE70098082806D08D
:1021500037E041F20020C0F27A00019037E00598A4
:10216000C0F3834144F64F40C0F60000405C02904B
:102170009DF81600C007C0B1FFE741F20400C4F2A9
:1021800002000068C0F3404144F65F40C0F6000022
:10219000405C0490029841F20021C0F27A01484369
:1021A0000499B0FBF1F0039007E0029840F60011AB
:1021B000C0F23D0148430390FFE70398019006E019
:1021C000FFE741F20020C0F27A000190FFE701989A
:1021D00006B0704780B586B00490049820B9FFE738
:1021E00001208DF817002EE304980078C00700281E
:1021F00000F0AE80FFE741F20400C4F20200006884
:1022000000F00C00042813D0FFE741F20400C4F2F0
:102210000200006800F00C0008281BD1FFE741F223
:102220000400C4F202000068C003002812D5FFE7D2
:1022300041F20000C4F2020000688003002808D5C3
:10224000FFE70498406820B9FFE701208DF81700E8
:10225000F9E27CE0FFE704984068B0F5803F09D1DF
:10226000FFE741F20001C4F20201086840F4803047
:10227000086032E00498406868B9FFE741F2000165
:10228000C4F20201086820F480300860086820F475
:102290008020086020E004984068B0F5A02F0DD1A0
:1022A000FFE741F20001C4F20201086840F4802017
:1022B0000860086840F4803008600CE041F20001DA
:1022C000C4F20201086820F480300860086820F435
:1022D00080200860FFE7FFE7FFE7FFE7049840681A
:1022E000D0B1FFE7FEF700FF0390FFE741F20000E7
:1022F000C4F202000068800300280CD4FFE7FEF758
:10230000F3FE0399401A652804D3FFE703208DF8F4
:10231000170098E2EAE719E0FEF7E6FE0390FFE710
:1023200041F20000C4F202000068800300280CD5CE
:10233000FFE7FEF7D9FE0399401A652804D3FFE7AB
:1023400003208DF817007EE2EAE7FFE7FFE7FFE7EB
:10235000049800788007002840F18D80FFE741F263
:102360000400C4F20200006810F00C0F13D0FFE765
:1023700041F20400C4F20200006800F00C000828DA
:1023800029D1FFE741F20400C4F202000068C00353
:10239000002820D4FFE741F20000C4F202000068E8
:1023A0008007002809D5FFE704980069012804D0B8
:1023B000FFE701208DF8170045E241F20001C4F269
:1023C0000201086820F0F800049A526940EAC2004D
:1023D0000860FFE74EE00498006958B3FFE700216A
:1023E000C4F2422101200860FEF77EFE0390FFE761
:1023F00041F20000C4F202000068800700280CD4FB
:10240000FFE7FEF771FE0399401A032804D3FFE7A4
:1024100003208DF8170016E2EAE741F20001C4F24A
:102420000201086820F0F800049A526940EAC200EC
:1024300008601EE00021C4F2422100200860FEF77F
:1024400053FE0390FFE741F20000C4F2020000686F
:10245000800700280CD5FFE7FEF746FE0399401AD7
:10246000032804D3FFE703208DF81700EBE1EAE728
:10247000FFE7FFE7FFE7049800780007002848D54A
:10248000FFE70498806918B3FFE740F28041C4F287
:10249000422101200860FEF727FE0390FFE741F28A
:1024A0002400C4F202000068800700280CD4FFE773
:1024B000FEF71AFE0399401A032804D3FFE703200E
:1024C0008DF81700BFE1EAE7012001F0F3F91FE002
:1024D00040F28041C4F2422100200860FEF704FE71
:1024E0000390FFE741F22400C4F202000068800775
:1024F00000280CD5FFE7FEF7F7FD0399401A0328E3
:1025000004D3FFE703208DF817009CE1EAE7FFE71B
:10251000FFE7049800784007002840F1D880FFE7E3
:1025200000208DF8070041F21C00C4F20200006890
:10253000C000002813D4FFE7FFE741F21C00C4F2FB
:102540000200016841F080510160006800F0805095
:1025500000900098FFE701208DF80700FFE747F2A1
:102560000000C4F200000068C005002822D4FFE784
:1025700047F20001C4F20001086840F4807008606E
:10258000FEF7B2FD0390FFE747F20000C4F200003F
:102590000068C00500280CD4FFE7FEF7A5FD0399ED
:1025A000401A652804D3FFE703208DF817004AE19D
:1025B000EAE7FFE7FFE70498C068012809D1FFE7D1
:1025C00041F22001C4F20201086840F001000860F5
:1025D00031E00498C06868B9FFE741F22001C4F215
:1025E0000201086820F001000860086820F004007B
:1025F00008601FE00498C06805280DD1FFE741F28C
:102600002001C4F20201086840F004000860086874
:1026100040F0010008600CE041F22001C4F2020128
:10262000086820F001000860086820F004000860D5
:10263000FFE7FFE7FFE7FFE70498C068E0B1FFE7C7
:10264000FEF752FD0390FFE741F22000C4F20200C2
:102650000068800700280ED4FFE7FEF745FD0399C8
:10266000401A41F28931884204D3FFE703208DF8F4
:102670001700E8E0E8E71BE0FEF736FD0390FFE710
:1026800041F22000C4F202000068800700280ED545
:10269000FFE7FEF729FD0399401A41F2893188428C
:1026A00004D3FFE703208DF81700CCE0E8E7FFE74D
:1026B0009DF80700012809D1FFE741F21C01C4F28F
:1026C0000201086820F080500860FFE7FFE70498E7
:1026D000C069002800F0B380FFE741F20400C4F2B3
:1026E0000200006800F00C00082800F08280FFE77C
:1026F0000498C06902285CD1FFE76021C4F242213E
:1027000000200860FEF7F0FC0390FFE741F20000B4
:10271000C4F202000068800100280CD5FFE7FEF734
:10272000E3FC0399401A032804D3FFE703208DF844
:10273000170088E0EAE70498006AB0F5803F0CD102
:10274000FFE741F20401C4F20201086820F40030FE
:10275000049A926810430860FFE741F20401C4F252
:102760000201086820F47410049B1A6A5B6A1A4319
:10277000104308606021C4F2422101200860FEF786
:10278000B3FC0390FFE741F20000C4F202000068CE
:10279000800100280CD4FFE7FEF7A6FC0399401A3D
:1027A000032804D3FFE703208DF817004BE0EAE786
:1027B0001EE06021C4F2422100200860FEF794FC74
:1027C0000390FFE741F20000C4F2020000688001BC
:1027D00000280CD5FFE7FEF787FC0399401A032871
:1027E00004D3FFE703208DF817002CE0EAE7FFE7AA
:1027F00024E00498C069012804D1FFE701208DF886
:10280000170020E041F20400C4F2020000680290C8
:10281000029800F480300499096A884208D1FFE7E1
:10282000029800F470100499496A884204D0FFE7C6
:1028300001208DF8170006E0FFE7FFE7FFE7002023
:102840008DF81700FFE79DF8170006B080BD000067
:1028500080B582B00190019801F04CF802B080BDC3
:1028600080B582B00090009820B9FFE701208DF874
:10287000070040E00098806908B1FFE700E0FFE74B
:10288000009890F8410040B9FFE70099002081F8D6
:102890004000009800F034F8FFE70099242081F808
:1028A000410000980168C86820F40050C860009892
:1028B00001F0C8F800980168086920F490400861A8
:1028C00000980168486920F02A0048610098016872
:1028D000C86840F40050C860009900204864009A1D
:1028E000202182F84110009A82F842100099486332
:1028F0008DF80700FFE79DF8070002B080BD0000DB
:1029000080B58AB009900020089007900690059045
:102910000998006843F60001C4F20101884239D1E8
:10292000FFE7FFE741F21800C4F20200016841F43A
:1029300080410160006800F4804004900498FFE743
:10294000FFE741F21800C4F20200016841F00401FF
:102950000160006800F0040003900398FFE74FF463
:1029600000700590022006900320089040F60000B9
:10297000C4F20100019005A90291FEF725FA019821
:1029800002994FF480620592002206920792FEF7A8
:102990001BFAFFE70AB080BD80B58AB008900791A6
:1029A000ADF81A20059300200290089890F8410095
:1029B000202840F08180FFE7079820B1FFE7BDF8AD
:1029C0001A0020B9FFE701208DF8270078E0089968
:1029D000002048640899212081F84100FEF784FB1B
:1029E0000290BDF81A0008998884BDF81A00089969
:1029F000C88408988068B0F5805F09D1FFE708981F
:102A0000006928B9FFE7002004900798039004E0CC
:102A10000798049000200390FFE7FFE70898C08C18
:102A200078B3FFE70898029B05996A4611608021F8
:102A3000002201F065F840B1FFE70899202081F8F5
:102A4000410003208DF827003AE0049858B9FFE7C9
:102A5000039800886FF35F2008990968486003981D
:102A60000230039008E004980078089909684860EB
:102A7000049801300490FFE70899C88C0138C88495
:102A8000CCE70898029B05996A4611604021002214
:102A900001F036F840B1FFE70899202081F84100A5
:102AA00003208DF827000BE00899202081F84100D1
:102AB00000208DF8270003E002208DF82700FFE7B3
:102AC0009DF827000AB080BDFFE7FEE782B00090C6
:102AD00000980068406900F480610120B0EB912FFC
:102AE0001ED1FFE7009801686FF48060486100998B
:102AF00000200863009A202182F83D10009981F897
:102B00003E000099086C40F004000864FFE700995B
:102B1000002081F83C00FFE701208DF8070003E06A
:102B200000208DF80700FFE79DF8070002B070470E
:102B300080B588B00690ADF81610049203930698FD
:102B4000C06A02900298082809D0FFE7029801287D
:102B500005D0FFE7029810F5803F07D1FFE7069800
:102B60000168086840F4807008600DE00698006B0A
:102B7000122807D1FFE706980168086840F48070C2
:102B8000086000E0FFE7FFE70698049B03996A46A8
:102B900011604FF00111002200F03AFA80B1FFE716
:102BA000069800680068C005002805D5FFE706996B
:102BB0004FF400700864FFE703208DF81F003CE02D
:102BC00006980069B0F5804F08D1FFE7BDF8160000
:102BD00000F0FE000699096808611CE0BDF81600C7
:102BE00000F44070C009F030069909680861069841
:102BF000049A039B0821C0F2010100F08DFA20B174
:102C0000FFE701208DF81F0017E09DF816000699D8
:102C100009680861FFE70698049A039B0221C0F245
:102C2000010100F079FA20B1FFE701208DF81F00C3
:102C300003E000208DF81F00FFE79DF81F0008B09B
:102C400080BD000080B586B0DDF824C0DDF820C06E
:102C50000490ADF80E10ADF80C20ADF80A300498D1
:102C60000168086840F4806008600498016808689A
:102C700040F4807008600498089B09996A461160C6
:102C80004FF00111002200F0C3F980B1FFE7049872
:102C900000680068C005002805D5FFE704994FF4D7
:102CA00000700864FFE703208DF81700B7E0BDF857
:102CB0000E0000F0FE000499096808610498089A63
:102CC000099B0221C0F2010100F026FA20B1FFE7C2
:102CD00001208DF81700A2E0FFE700200190049882
:102CE000006840690190049800688069019001982B
:102CF000FFE704980899099A00F026FB80B1FFE7E6
:102D00000498006C042807D1FFE70498016808685C
:102D100040F400700860FFE701208DF817007EE0A6
:102D2000BDF80A00012806D1FFE79DF80C000499C0
:102D30000968086121E09DF80D000499096808619F
:102D400004980899099A00F0FFFA80B1FFE7049807
:102D5000006C042807D1FFE704980168086840F474
:102D600000700860FFE701208DF8170057E09DF81C
:102D70000C00049909680861FFE704980899099A0A
:102D800000F0E2FA80B1FFE70498006C042807D154
:102D9000FFE704980168086840F400700860FFE7E6
:102DA00001208DF817003AE004980168086840F4A3
:102DB000807008600498089B09996A4611604FF07A
:102DC0000111002200F024F980B1FFE704980068A7
:102DD0000068C005002805D5FFE704994FF400708E
:102DE0000864FFE703208DF8170018E09DF80E0037
:102DF00040F001000499096808610498089A099B49
:102E00000221C0F2010100F087F920B1FFE70120A3
:102E10008DF8170003E000208DF81700FFE79DF8FC
:102E2000170006B080BD000080B586B0DDF824C074
:102E3000DDF820C00490ADF80E10ADF80C20ADF810
:102E40000A3004980168086840F4807008600498AB
:102E5000089B09996A4611604FF00111002200F0A9
:102E6000D7F880B1FFE7049800680068C005002823
:102E700005D5FFE704994FF400700864FFE70320CD
:102E80008DF8170069E0BDF80E0000F0FE0004990F
:102E9000096808610498089A099B0221C0F201019F
:102EA00000F03AF920B1FFE701208DF8170054E057
:102EB000FFE70020019004980068406901900498A1
:102EC0000068806901900198FFE704980899099AC1
:102ED00000F03AFA80B1FFE70498006C042807D1AB
:102EE000FFE704980168086840F400700860FFE795
:102EF00001208DF8170030E0BDF80A00012806D146
:102F0000FFE79DF80C0004990968086121E09DF82D
:102F10000D0004990968086104980899099A00F05D
:102F200013FA80B1FFE70498006C042807D1FFE78B
:102F300004980168086840F400700860FFE7012009
:102F40008DF8170009E09DF80C00049909680861E4
:102F5000FFE700208DF81700FFE79DF8170006B087
:102F600080BD000080B584B0029001910092FFE71F
:102F700002980068406900F004010020B0EB910F56
:102F80003ED1FFE70298FFF7A1FD20B1FFE7012046
:102F90008DF80F0038E00198013080B3FFE7FEF7AD
:102FA000A3F80099401A0199884203D8FFE70198D5
:102FB00020BBFFE702980068406900F00401002090
:102FC000B0EB910F19D1FFE7029900200863029A34
:102FD000202182F83D10029981F83E000299086C88
:102FE00040F020000864FFE70299002081F83C00CF
:102FF000FFE701208DF80F0006E0FFE7FFE7B7E7E6
:1030000000208DF80F00FFE79DF80F0004B080BD91
:1030100080B588B0DDF828C0069005918DF81320A2
:103020000393FFE79DF8160001280CD1FFE70698EF
:1030300000684069BDF814100840401AB0FA80F0EA
:10304000400902900BE0069800688069BDF81410F2
:103050000840401AB0FA80F040090290FFE7029859
:103060009DF8131088424FD1FFE7039801300028E4
:1030700049D0FFE7FEF738F80A99401A03998842C9
:1030800003D8FFE70398E8BBFFE79DF81600012887
:103090000CD1FFE7069800684069BDF8141008409D
:1030A000401AB0FA80F0400901900BE006980068E1
:1030B0008069BDF814100840401AB0FA80F0400949
:1030C0000190FFE701989DF81310884219D1FFE79E
:1030D000069900200863069A202182F83D1006997F
:1030E00081F83E000699086C40F020000864FFE774
:1030F0000699002081F83C00FFE701208DF81F00B1
:1031000006E0FFE7FFE78DE700208DF81F00FFE7EF
:103110009DF81F0008B080BD80B588B0069005916D
:1031200004920393FFE79DF8160001280CD1FFE7F6
:10313000069800684069BDF814100840401AB0FABB
:1031400080F0400902900BE0069800688069BDF8A5
:1031500014100840401AB0FA80F040090290FFE7CE
:10316000029800287AD1FFE706980068406900F4C9
:1031700080610120B0EB912F24D1FFE70698016810
:10318000086840F400700860069801686FF4806079
:103190004861069900200863069A202182F83D10B4
:1031A000069981F83E000699086C40F00400086416
:1031B000FFE70699002081F83C00FFE701208DF829
:1031C0001F004FE004980130002846D0FFE7FDF7CC
:1031D0008BFF0399401A0499884203D8FFE70498AB
:1031E000D0BBFFE79DF8160001280CD1FFE7069839
:1031F00000684069BDF814100840401AB0FA80F029
:10320000400901900BE0069800688069BDF8141031
:103210000840401AB0FA80F040090190FFE7019899
:10322000C8B9FFE7069900200863069A202182F8B2
:103230003D10069981F83E000699086C40F0200088
:103240000864FFE70699002081F83C00FFE70120B1
:103250008DF81F0006E0FFE7FFE764E700208DF828
:103260001F00FFE79DF81F0008B080BD80B584B047
:10327000029001910092FFE702980068406900F017
:1032800040010020B0EB911F56D1FFE70298006883
:10329000406900F010010120B0EB111F1CD1FFE7C5
:1032A000029801686FF010004861029900200863DD
:1032B000029A202182F83D10029981F83E0002997D
:1032C000086C0864FFE70299002081F83C00FFE7E2
:1032D00001208DF80F0033E0FDF706FF0099401A3A
:1032E0000199884203D8FFE7019820BBFFE70298C5
:1032F0000068406900F040010020B0EB911F19D137
:10330000FFE7029900200863029A202182F83D100D
:10331000029981F83E000299086C40F02000086490
:10332000FFE70299002081F83C00FFE701208DF8BB
:103330000F0005E0FFE79FE700208DF80F00FFE793
:103340009DF80F0004B080BD80B584B0029001915B
:103350000092FFE7029800684069C1B20020B0EB1C
:10336000D11F3DD1FFE70298FFF7B0FB20B1FFE787
:1033700001208DF80F0037E00198013078B3FFE7A6
:10338000FDF7B2FE0099401A0199884203D8FFE781
:10339000019818BBFFE7029800684069C1B200209D
:1033A000B0EBD11F19D1FFE7029900200863029A00
:1033B000202182F83D10029981F83E000299086CA4
:1033C00040F020000864FFE70299002081F83C00EB
:1033D000FFE701208DF80F0006E0FFE7FFE7B9E700
:1033E00000208DF80F00FFE79DF80F0004B080BDAE
:1033F00082B0FFE741F21800C4F20200016841F018
:1034000020010160006800F0200001900198FFE7B2
:10341000FFE741F21800C4F20200016841F0040124
:103420000160006800F0040000900098FFE702B01F
:103430007047000080B582B040F23440C2F2000014
:10344000019045F20041C4F20001016048F2A06120
:10345000C0F20101416000218160C1604FF48042EF
:10346000026141618161C1610162FDF743FE18B1F2
:10347000FFE7FDF77FFCFFE702B080BD80B582B0BB
:1034800040F28840C2F20000019043F60001C4F20D
:10349000010101604FF4E131416000218160C160B0
:1034A00001610C2242618161C161FFF7D9F918B154
:1034B000FFE7FDF75FFCFFE702B080BDFFE7FEE737
:1034C000FFE7FEE788B0079006910592079800F0A5
:1034D000070004900498C0F10700052803D3FFE714
:1034E0000420019004E00498C0F107000190FFE778
:1034F0000198039004980430062803D8FFE70020C1
:10350000009003E0049803380090FFE700980290D1
:1035100006980399012202FA01F101390840029B41
:10352000984005999A40013A1140084308B0704705
:1035300081B00020ADF80200FFE7BDF802100020C6
:10354000B0EB912F0FD1FFE7BDF8022040F2100140
:10355000C2F2000100208854FFE7BDF802000130EC
:10356000ADF80200E9E701B07047000080B582B015
:103570008DF807008DF806108DF805209DF80500E0
:10358000202805DBFFE79DF805007F2804DBFFE727
:1035900020208DF80500FFE79DF8050020388DF804
:1035A000050000208DF80400FFE79DF804000428C2
:1035B00039DCFFE700208DF80300FFE79DF80300EA
:1035C000062829DCFFE79DF8050000EB800144F6A2
:1035D0007420C0F6000008449DF80410405C9DF87B
:1035E0000310C840C00780B1FFE79DF807009DF8B1
:1035F000041008449DF806109DF803201144C0B241
:10360000C9B2012200F09AF8FFE7FFE79DF8030036
:1036100001308DF80300D1E7FFE79DF80400013089
:103620008DF80400C1E702B080BD000080B584B011
:103630000390039840F2D041C2F200010860642078
:10364000FDF7A0FBAE2000F0FBF8D52000F0F8F865
:10365000802000F0F5F8A82000F0F2F83F2000F0FC
:10366000EFF8D32000F0ECF80020019000F0E8F82B
:103670004020029000F0E4F88D2000F0E1F81420E2
:1036800000F0DEF8202000F0DBF8019800F0D8F818
:10369000A12000F0D5F8C82000F0D2F8812000F079
:1036A000CFF8CF2000F0CCF8D92000F0C9F8F120F5
:1036B00000F0C6F8DB2000F0C3F8029800F0C0F874
:1036C000A42000F0BDF8A62000F0BAF8AF2000F06A
:1036D000B7F8FFF72DFF00F075F804B080BD0000CB
:1036E00080B582B08DF807008DF806100092FFE7D4
:1036F00000980078F8B1FFE79DF807009DF80610E4
:10370000009A1278FFF732FF9DF8070006308DF817
:1037100007009DF807007B2809DBFFE700208DF8F4
:1037200007009DF8060008308DF80600FFE70098B6
:1037300001300090DCE702B080BD000081B08DF860
:1037400003008DF802108DF801209DF803007F28FA
:1037500005DCFFE79DF80200402801DBFFE72FE0D2
:103760009DF80100B0B1FFE79DF8022002F00701CB
:10377000012000FA01F39DF803006FF0700101EAE7
:103780000211421840F21001C2F20001885C184395
:10379000885415E09DF8022002F00701012000FA8C
:1037A00001F39DF803006FF0700101EA0211421865
:1037B00040F21001C2F20001885C98438854FFE790
:1037C00001B0704780B582B000208DF80700FFE798
:1037D0009DF80700072831DCFFE79DF80700B030AF
:1037E000C0B200F02DF80020009000F029F8102061
:1037F00000F026F800988DF80600FFE79DF8060017
:103800007F2814DCFFE79DF806009DF8071000EB09
:10381000C11140F21000C2F20000405C00F02CF830
:10382000FFE79DF8060001308DF80600E6E7FFE7A8
:103830009DF8070001308DF80700C9E702B080BD90
:1038400080B582B08DF8070000208DF805009DF846
:1038500007008DF8060040F2D040C2F20000006878
:103860006A466421116078210DF105020223FDF7FB
:1038700093FD02B080BD000080B582B08DF80700D6
:1038800040208DF805009DF807008DF8060040F2F5
:10389000D040C2F2000000686A46642111607821BD
:1038A0000DF105020223FDF777FD02B080BD000097
:1038B0007047000082B00190019840F20401C2F20A
:1038C00000010968C90844F6D352C1F26202A1FBA3
:1038D0000221890948430090FFE700BFFFE70098F5
:1038E000411E00910028F8D1FFE702B070470000A8
:1038F0007047000080B582B0009000980138B0F1A8
:10390000807F03D3FFE70120019019E00098013880
:103910004EF21401CEF2000108604FF0FF300F218B
:1039200000F066F94EF21801CEF2000100200860A6
:103930004EF21002CEF20002072111600190FFE763
:10394000019802B080BD000080B5FEF7E1F980BDAE
:1039500080B590B006A800902821FCF71BFC0098C9
:103960000021059104910391029101910222069296
:1039700001220A9210220B920D91FEF72BFC18B136
:10398000FFE7FDF7F7F9FFE70F2001900021029113
:1039900003910491059101A8FEF768FA18B1FFE7B9
:1039A000FDF7E8F9FFE710B080BD000070470000A8
:1039B00084B00390FFE7FFE70398006850E8030F27
:1039C00020F490700290FFE702990398026842E8A1
:1039D00003100028F0D1FFE7FFE7FFE7FFE70398B8
:1039E000006850E8050F20F001000190FFE7019901
:1039F0000398026842E805100028F0D1FFE7FFE7CE
:103A00000398006B012814D1FFE7FFE7FFE7039855
:103A1000006850E8030F20F010000090FFE70099C5
:103A20000398026842E803100028F0D1FFE7FFE79F
:103A3000FFE70399202081F84200039900200863E2
:103A400004B0704780B584B00390039800680069A3
:103A500020F44050039A1168D2681043086103991A
:103A600088680A694969104308430290039800680E
:103A7000C06841F20C6188430299084303990968C0
:103A8000C86003980068406920F44070039A116888
:103A90009269104348610398006843F60001C4F23C
:103AA0000101884204D1FFE7FEF724FB019003E007
:103AB000FEF70EFB0190FFE7019819214843039A96
:103AC000116852689200B0FBF2FC48F21F52C5F236
:103AD000EB12ACFB02304309642003FB10CC322014
:103AE00000EB0C10A0FB0202F02000EA521000EBE9
:103AF0000310C2F343121044886004B080BD00007C
:103B000080B586B0DDF820C0049003918DF80B20BD
:103B10000193FFE704980068006803990840401A81
:103B2000B0FA80F040099DF80B1088424DD1FFE7B4
:103B300008980130002847D0FFE7FDF7D5FA019932
:103B4000401A0899884203D8FFE7089820B9FFE790
:103B500003208DF817003CE004980068C068400717
:103B6000002830D5FFE7039880282CD0FFE7039882
:103B7000402828D0FFE704980068006800F008019A
:103B80000120B0EBD10F1DD1FFE7FFE7002000902F
:103B900004980068006800900498006840680090ED
:103BA0000098FFE70498FFF703FF04990820486492
:103BB000FFE70499002081F84000FFE701208DF81D
:103BC000170006E0FFE7FFE7A4E700208DF81700E5
:103BD000FFE79DF8170006B080BD0000FFE7FEE795
:103BE0004EF60C50CEF200000068C0F30220704781
:103BF00082B08DF8070000919DF9070000280AD4D3
:103C0000FFE7009800019DF907104EF20042CEF246
:103C1000000288540BE0009800019DF8071001F0A5
:103C20000F014EF61452CEF200028854FFE702B0A4
:103C30007047000083B00290029800F007000090E7
:103C40004EF60C51CEF200010868019001984FF633
:103C5000FF02104001900198009A40EA02200022E1
:103C6000C0F2FA52104301900198086003B0704707
:103C700080B582B00190009140F28840C2F200000D
:103C800001A901226423FEF787FE019802B080BDDE
:103C900010B59EB0002017901D90FEF747F8FFF773
:103CA00057FEFFF7A5FBFFF7C5FBFFF7E7FB44F661
:103CB000B440C0F6000000F03FFA40F23440C2F2D7
:103CC00000001890FFF7B2FC179944F6B052C0F606
:103CD00000020846FFF704FD179844F6A052C0F60C
:103CE00000020C21FFF7FCFCFFF76CFD44F650507E
:103CF000C0F6000000F020FA1898FCF7F1FD8DF8EE
:103D000067009DF8670001281DD1FFE744F61F50AA
:103D1000C0F6000000F010FAFFF70AFC44F68E52DD
:103D2000C0F60002002116910846FFF7D9FC16984C
:103D300044F6C752C0F600021021FFF7D1FCFFF78E
:103D400041FDFFE7FEE79DF8670002281DD1FFE770
:103D500044F68140C0F6000000F0EEF9FFF7E8FB02
:103D600044F68152C0F60002002115910846FFF783
:103D7000B7FC159844F6D452C0F600021021FFF7A4
:103D8000AFFCFFF71FFDFFE7FEE7FFE744F66140EA
:103D9000C0F6000000F0D0F9FFF7CAFB44F67352FA
:103DA000C0F60002002114910846FFF799FC149810
:103DB00044F66C52C0F600021821FFF791FC1498EB
:103DC00044F67A52C0F600023021FFF789FCFFF773
:103DD000F9FCFFE740F23440C2F200001390FCF718
:103DE00075FD0A20FCF7CEFF13981CA91BAA1AAB7D
:103DF000FCF7BAFD002840F0C080FFE71C98FCF7F4
:103E00007CFA109011911B98FCF777FA12900F91A1
:103E10001A98FCF772FADDF83CC0109A119B86469E
:103E200012980C466946CC60C1F808E0C1F804C09D
:103E3000086044F6EC40C0F6000000F07DF9302048
:103E4000ADF86400FFE7BDF864007F2819DCFFE7E8
:103E5000BDF8641040F21002C2F20002002050547B
:103E6000BDF86410114481F88001BDF8641011445C
:103E700081F80003FFE7BDF864000130ADF864008D
:103E8000E1E71C980590FCF71FFA0146059806919A
:103E90000021C4F220110991FCF787F9FCF714FA0C
:103EA000069A46F26761C6F266610B9180FB0113C8
:103EB000991001EBD37101EB8101A0EB410340F2BA
:103EC000D440C2F200000E9044F6A851C0F60001A2
:103ED00000F042F90E9A30200D900021FFF700FC0F
:103EE0001B980790FCF7F0F9099902460798089289
:103EF000FCF75BF9FCF7E8F9089A0B9B01460E9872
:103F000081FB033C4FEAAC0303EBDC7303EB83035D
:103F1000A1EB430344F69851C0F6000100F01CF9F0
:103F20000E9A0D981821FFF7DBFB1A980A90FCF700
:103F3000CBF9099902460A980C92FCF736F9FCF77E
:103F4000C3F90B9B0C9A01460E9881FB033C4FEA88
:103F5000AC0303EBDC7303EB8303A1EB430344F6F5
:103F6000BE51C0F6000100F0F7F80D990E9A084610
:103F7000FFF7B6FBFFF726FCFFE74FF4FA60FCF70C
:103F800001FF27E780B58CB00A900A9888210DF1CF
:103F90000E021A2300F09AF820B1FFE701208DF8F5
:103FA0002F008FE09DF80E009DF80F1040EA0120D1
:103FB00040F21041C2F20001009108809DF810000B
:103FC0009DF8112040EA022048809DF812009DF8DB
:103FD000132040EA022088809DF814009DF81520E7
:103FE00040EA0220C8809DF816009DF8172040EA9C
:103FF000022008819DF818009DF8192040EA02204F
:1040000048819DF81A009DF81B2040EA0220888113
:104010009DF81C009DF81D2040EA0220C8819DF8F3
:104020001E009DF81F2040EA022008829DF8200013
:104030009DF8212040EA022048829DF822009DF848
:10404000232040EA022088829DF824009DF8252044
:1040500040EA0220C8829DF8270008760A98E121EC
:104060000DF10702072300F031F820B1FFE701202E
:104070008DF82F0026E09DF807009DF8081040EA13
:10408000012040F21041C2F2000148839DF809006E
:1040900008779DF80A209DF80B0000F00F0040EA19
:1040A0000210C8839DF80B009DF80C20000940EA1F
:1040B000021008849DF80D0081F8220000208DF880
:1040C0002F00FFE79DF82F000CB080BD80B588B0B1
:1040D00007908DF81B1005928DF8133007989DF806
:1040E0001B2005999DF813C06B464FF0640EC3F872
:1040F00008E0C3F804C01960EC210123FDF750FA71
:1041000008B080BD80B586B005908DF813108DF88D
:10411000122005989DF81320EC466421CCF8081075
:104120000123CCF804300DF11201CCF80010EC2181
:10413000FDF7A6FC06B080BD0FB4054B10B503A972
:10414000044A029800F0EEF810BC5DF814FB000081
:10415000713C0008000000200FB4084B10B504A902
:1041600002AA039800F0DEF8044602A9002000F03D
:1041700070FC204610BC5DF814FB0000534A000898
:1041800002E008C8121F08C1002AFAD17047704720
:10419000002001E001C1121F002AFBD1704700007E
:1041A0002DE9FF5F82B00021DDE90430020DDDF86A
:1041B00040B0034318D044F61050A2F2FF324243FD
:1041C0001514119801281FD0A5EB0B00401C5FEAC5
:1041D000000A4FF000064E4FDFF83891B0465046C7
:1041E00015D5CAF1000413E0119801244AA301284F
:1041F00001D16FEA0B010298119AC0E90031C0E9C0
:10420000024206B0BDE8F09FCBF10000DFE70446B4
:104210000021404A491842EB0450CDE9001012E059
:10422000E00707D032463B4640464946FCF79DF939
:104230008046894632463B4610461946FCF795F9BA
:1042400006460F466410002CEAD1DDE90401DDE9E1
:104250000023BAF1000F06DAFCF787F942464B4615
:10426000FCF783F905E0FCF7F2F942464B46FCF710
:10427000EEF904460E460022284BFCF76FFA03D8ED
:104280004FF0FF30014607E00022254B2046314623
:10429000FCF7C4F8FCF74AFA102409E0002C0ADB0A
:1042A0000A220023FCF752F8039B30321A55641E91
:1042B00050EA0102F2D1641C039AC4F111031444C0
:1042C000119A012A03D0012208430DD10AE00843C4
:1042D00004D000204FF0110B119072E7A3EB0B05F7
:1042E0006D1E0DE05B4504DD4FF0000205F1010598
:1042F00004E003DA4FF00002A5F10105002AECD03A
:1043000002981199C0E90231C0E9004579E700003F
:10431000000014400000F03F300000000000F043B7
:104320000000E03F2DE9FF4F95B09B4689460646C9
:1043300000250FE2252877D100242746F84A0121DD
:10434000059400E0044316F8013F203B01FA03F016
:104350001042F7D130782A2811D06FF02F0330782F
:10436000A0F13002092A16D8059A44F0020402EBA3
:10437000820203EB42021044761C0590EFE759F8E5
:10438000042B0592002A03DA504244F400540590AD
:1043900044F00204761C30782E2816D116F8010F4E
:1043A00044F004042A280DD06FF02F023078A0F1D9
:1043B0003003092B09D807EB870302EB4303C71827
:1043C000761CF3E759F8047B761C30786C280FD004
:1043D00006DC4C2817D068280DD06A2814D104E0D8
:1043E000742810D07A280FD10DE044F400140AE0AC
:1043F00044F4801401E044F440147278824202D103
:1044000004F58014761C761C307866280BD013DCFB
:10441000582877D009DC002875D04528F6D04628E2
:10442000F4D047281AD19DE118E0632835D06428DC
:1044300079D0652812D195E1702873D008DC6728FF
:10444000F1D069286FD06E280DD06F2806D1B5E065
:1044500073282CD0752875D0782874D05A461799AF
:1044600090476D1C75E1C4F30250022809D003285F
:104470000DD0D9F8001004280DD00D6009F1040901
:1044800067E1D9F80010EA17C1E90052F6E7D9F858
:1044900000100D80F2E70D70F0E719F8041B8DF89D
:1044A000001000208DF80100EA46012003E059F8D1
:1044B00004AB4FF0FF3061074FF0000102D40DE074
:1044C00008F101018846B9420FDA8045F8DB1AF895
:1044D00008100029F4D108E008F101018846814262
:1044E000FADB1AF808100029F6D105985B46A0EB14
:1044F000080721463846179A00F094FA284400EB42
:10450000080507E04DE029E10DE01AF8010B5A46D5
:1045100017999047B8F10108F7D25B462146384613
:10452000179A13E142E00A220092C4F302524FF0BC
:10453000000A022A08D059F804CB032A4FEAEC718A
:104540000AD00DE029E02AE009F1070121F0070275
:10455000F2E802C1914609E00FFA8CFC4FEAEC71D7
:10456000042A03D14FFA8CFC4FEAEC71002907DAD8
:104570000A460021DCF1000C61EB02012D2202E071
:10458000220504D52B228DF80420012203E0E20746
:1045900001D02022F7E7904659E00A2102E01022DC
:1045A0000DE010214FF0000A00910BE010224FF0B7
:1045B000000A44F004040827009203E008224FF0A8
:1045C000000A0092C4F30252022A05D059F804CB23
:1045D0000021032A08D009E009F1070121F00702B0
:1045E000F2E802C1914605E01FFA8CFC042A01D1D1
:1045F0000CF0FF0C4FF00008220728D5702806D0D9
:10460000009B83F0100353EA0A0305D00EE040221A
:104610008DF80420012208E05CEA010206D0302275
:104620008DF804208DF8050002229046009B83F04F
:10463000080353EA0A030AD15CEA010201D16207C6
:1046400005D530228DF804204FF001087F1E582830
:1046500004D034A003900EA802900DE036A0F9E734
:1046600053466046009AFBF771FE84460398825CCD
:104670000298401E029002705CEA0100F0D102989C
:1046800006A9081A00F1200A600702D524F4803434
:1046900000E00127574502DDA7EB0A0000E00020FB
:1046A00000EB0A01009005984144401A0590E00390
:1046B00006D45B462146179A059800F0B3F90544E5
:1046C000002706E001A85A46C05D179990476D1C67
:1046D0007F1C4745F6DBE0030CD55B462146179A65
:1046E000059800F09FF9054404E030205A461799D8
:1046F00090476D1C0099481E00900029F5DC08E0E9
:10470000029802995A460078491C029117999047DD
:104710006D1CBAF10001AAF1010AF1DC65E10000AB
:104720000928010030313233343536373839616287
:10473000636465660000000030313233343536374B
:1047400038394142434445460000000000F058F922
:104750000544761C307800287FF4ECAD19B028466B
:10476000BDE8F08F620700D4062709F1070222F0A6
:10477000070CFCE80223E14603F000485FEA080C5E
:1047800002D00FF2702C0DE05FEA045C02D50FF24C
:10479000682C07E05FEAC47C02D00FF2602C01E0D5
:1047A000AFF2700C4FF0FF3823F00043CDF850C04B
:1047B00065280CD006DC452809D046281DD047289E
:1047C0003DD13DE0662818D067287ED138E0002131
:1047D000112F01DB112000E0781CCDE9000106A9B2
:1047E0000EA8FFF7DDFCDDE90F010E9A0391002111
:1047F000009207F1010A04914DE04FF0004000974C
:10480000CDE9011006A90EA8FFF7CAFCDDE90F02E9
:1048100003920E9B11990022DDF80CA000930492E4
:1048200011B9791C00EB010AB7EB0A0004D4C0F1FE
:10483000FF3007F1010A0490AAEB0700019044E061
:10484000012F00DA01270021112F01DD112000E0E6
:104850003846CDE9000106A90EA8FFF7A1FCDDE965
:104860000F010E9A0391002104910092BA4621078C
:104870000CD40399514500DA8A46BAF1010F05DDDF
:10488000009AAAF10101515C302908D0B84202DA3D
:1048900010F1040F06DA0121CDE9011015E0AAF1AB
:1048A0000101E9E7002805DC049901440491AAEB21
:1048B000000102E0411C514500DD8A460499401A7E
:1048C000401C01904FF000400290200704D4019852
:1048D000504501DBCDF8048000208DF84F00029890
:1048E0000DF14F07B0F1004F25D02B200E9002980C
:1048F0004FF0020800280CDA404202902D200E9062
:1049000007E00A210298FBF70BFD3031029007F80F
:10491000011DB8F10001A8F10108F2DC029800289D
:10492000EFD1791E0E980870307800F0200040F02A
:10493000450007F8020D12A8C01B00F107081498E3
:10494000007800B1012000EB0A01019801EBE07151
:1049500005984144401A401E0590E00306D45B468A
:104960002146179A059800F05DF8054414980078E0
:1049700018B15A46179990476D1CE00324D55B4641
:104980002146179A059800F04DF805441CE004985C
:10499000002807DBDDE90301884203DD0098405C65
:1049A000179901E0179930205A469047049805F16D
:1049B0000105401C04900198401E019004D12E2056
:1049C0005A46179990476D1CBAF10001AAF1010AE5
:1049D000DDDC05E017F8010B5A46179990476D1C6E
:1049E000B8F10001A8F10108F4DC5B462146179AF2
:1049F0000598ABE62D0000002B0000002000000011
:104A00002DE9F041044600251E461746880404D4CB
:104A100005E039462020B0476D1C641EF9D52846B4
:104A2000BDE8F0812DE9F041044600251E46904680
:104A3000C80301D5302700E02027880404D505E00D
:104A400041463846B0476D1C641EF9D52846BDE87E
:104A5000F0810A68531C0B60107070470000000062
:104A6000000000000102030406070809000000001E
:104A700001020304000000000000005F00000007C6
:104A8000000700147F147F14242A7F2A122313089E
:104A9000646236495522500005030000001C224183
:104AA000000041221C00082A1C2A0808083E0808A9
:104AB000005030000008080808080060600000206E
:104AC000100804023E5149453E00427F40004261C9
:104AD0005149462141454B311814127F1027454555
:104AE00045393C4A4949300171090503364949496C
:104AF00036064949291E00363600000056360000A9
:104B00000008142241141414141441221408000241
:104B100001510906324979413E7E1111117E7F49CA
:104B20004949363E414141227F4141221C7F49494A
:104B300049417F090901013E414151327F0808087E
:104B40007F00417F41002040413F017F0814224106
:104B50007F404040407F0204027F7F0408107F3E78
:104B60004141413E7F090909063E4151215E7F09CD
:104B7000192946464949493101017F01013F404019
:104B8000403F1F2040201F7F2018207F63140814FF
:104B9000630304780403615149454300007F4141A8
:104BA000020408102041417F000004020102044079
:104BB00040404040000102040020545454787F4893
:104BC0004444383844444420384444487F3854549A
:104BD0005418087E090102081454543C7F08040448
:104BE0007800447D40002040443D00007F10284470
:104BF00000417F40007C041804787C080404783865
:104C0000444444387C14141408081414187C7C0898
:104C10000404084854545420043F4440203C40407D
:104C2000207C1C2040201C3C4030403C4428102864
:104C3000440C5050503C4464544C440008364100ED
:104C400000007F0000004136080008082A1C080206
:104C5000030405060708090A0B0C0D0E0F101001BE
:104C6000025B4F4B5D20424D4532383020E5889D38
:104C7000E5A78BE58C96E68890E58A9F0D0A0D0ADC
:104C8000005BE99499E8AFAF5D20E88AAFE78987D8
:104C90004944E4B88DE58CB9E9858DEFBC8CE8AF6B
:104CA000B7E7A1AEE8AEA4E698AF20424D45323852
:104CB000300D0A000D0A3D3D3D3D3D3D3D3D3D3D34
:104CC00020424D45323830202B204F4C454420E6C1
:104CD000B8A9E6B9BFE5BAA6E6A380E6B58B203D44
:104CE0003D3D3D3D3D3D3D3D3D0D0A00E6B8A9E55C
:104CF000BAA63A20252E3166C2B0432020E6B9BFBD
:104D0000E5BAA63A20252E316625252020E6B09466
:104D1000E58E8B3A20252E31666850610D0A005BC6
:104D2000E99499E8AFAF5D2049324320E9809AE4E5
:104D3000BFA1E5A4B1E8B4A5EFBC8CE8AFB7E6A38A
:104D400080E69FA5E68EA5E7BABFEFBC810D0A00FD
:104D50005B4F4B5D204F4C454420E5889DE5A78B7C
:104D6000E58C96E68890E58A9F0D0A0048756D3AB5
:104D700020200054656D703A2000507265733A200F
:104D800000424D45323830204641494C21004932DD
:104D900043204641494C210025642E2564252500E9
:104DA000496E69742E2E2E0025642E256420430042
:104DB000424D45323830202B204F4C45440025646D
:104DC0002E256468506100436865636B20776972C3
:104DD000696E67004944206D69736D617463680092
:104DE000004E000800000020100000008041000874
:104DF000104E000810000020F0080000904100084C
:104E00000000000000127A00010000001000000005
:04000005080000ED02
:00000001FF
